{
  "_format": "hh-sol-artifact-1",
  "contractName": "GnosisSafeL2",
  "sourceName": "contracts/safe/GnosisSafeL2.sol",
  "abi": [
    {
      "anonymous": false,
      "inputs": [
        {
          "indexed": false,
          "internalType": "address",
          "name": "owner",
          "type": "address"
        }
      ],
      "name": "AddedOwner",
      "type": "event"
    },
    {
      "anonymous": false,
      "inputs": [
        {
          "indexed": true,
          "internalType": "bytes32",
          "name": "approvedHash",
          "type": "bytes32"
        },
        {
          "indexed": true,
          "internalType": "address",
          "name": "owner",
          "type": "address"
        }
      ],
      "name": "ApproveHash",
      "type": "event"
    },
    {
      "anonymous": false,
      "inputs": [
        {
          "indexed": false,
          "internalType": "address",
          "name": "handler",
          "type": "address"
        }
      ],
      "name": "ChangedFallbackHandler",
      "type": "event"
    },
    {
      "anonymous": false,
      "inputs": [
        {
          "indexed": false,
          "internalType": "address",
          "name": "guard",
          "type": "address"
        }
      ],
      "name": "ChangedGuard",
      "type": "event"
    },
    {
      "anonymous": false,
      "inputs": [
        {
          "indexed": false,
          "internalType": "uint256",
          "name": "threshold",
          "type": "uint256"
        }
      ],
      "name": "ChangedThreshold",
      "type": "event"
    },
    {
      "anonymous": false,
      "inputs": [
        {
          "indexed": false,
          "internalType": "address",
          "name": "module",
          "type": "address"
        }
      ],
      "name": "DisabledModule",
      "type": "event"
    },
    {
      "anonymous": false,
      "inputs": [
        {
          "indexed": false,
          "internalType": "address",
          "name": "module",
          "type": "address"
        }
      ],
      "name": "EnabledModule",
      "type": "event"
    },
    {
      "anonymous": false,
      "inputs": [
        {
          "indexed": false,
          "internalType": "bytes32",
          "name": "txHash",
          "type": "bytes32"
        },
        {
          "indexed": false,
          "internalType": "uint256",
          "name": "payment",
          "type": "uint256"
        }
      ],
      "name": "ExecutionFailure",
      "type": "event"
    },
    {
      "anonymous": false,
      "inputs": [
        {
          "indexed": true,
          "internalType": "address",
          "name": "module",
          "type": "address"
        }
      ],
      "name": "ExecutionFromModuleFailure",
      "type": "event"
    },
    {
      "anonymous": false,
      "inputs": [
        {
          "indexed": true,
          "internalType": "address",
          "name": "module",
          "type": "address"
        }
      ],
      "name": "ExecutionFromModuleSuccess",
      "type": "event"
    },
    {
      "anonymous": false,
      "inputs": [
        {
          "indexed": false,
          "internalType": "bytes32",
          "name": "txHash",
          "type": "bytes32"
        },
        {
          "indexed": false,
          "internalType": "uint256",
          "name": "payment",
          "type": "uint256"
        }
      ],
      "name": "ExecutionSuccess",
      "type": "event"
    },
    {
      "anonymous": false,
      "inputs": [
        {
          "indexed": false,
          "internalType": "address",
          "name": "owner",
          "type": "address"
        }
      ],
      "name": "RemovedOwner",
      "type": "event"
    },
    {
      "anonymous": false,
      "inputs": [
        {
          "indexed": false,
          "internalType": "address",
          "name": "module",
          "type": "address"
        },
        {
          "indexed": false,
          "internalType": "address",
          "name": "to",
          "type": "address"
        },
        {
          "indexed": false,
          "internalType": "uint256",
          "name": "value",
          "type": "uint256"
        },
        {
          "indexed": false,
          "internalType": "bytes",
          "name": "data",
          "type": "bytes"
        },
        {
          "indexed": false,
          "internalType": "enum Enum.Operation",
          "name": "operation",
          "type": "uint8"
        }
      ],
      "name": "SafeModuleTransaction",
      "type": "event"
    },
    {
      "anonymous": false,
      "inputs": [
        {
          "indexed": false,
          "internalType": "address",
          "name": "to",
          "type": "address"
        },
        {
          "indexed": false,
          "internalType": "uint256",
          "name": "value",
          "type": "uint256"
        },
        {
          "indexed": false,
          "internalType": "bytes",
          "name": "data",
          "type": "bytes"
        },
        {
          "indexed": false,
          "internalType": "enum Enum.Operation",
          "name": "operation",
          "type": "uint8"
        },
        {
          "indexed": false,
          "internalType": "uint256",
          "name": "safeTxGas",
          "type": "uint256"
        },
        {
          "indexed": false,
          "internalType": "uint256",
          "name": "baseGas",
          "type": "uint256"
        },
        {
          "indexed": false,
          "internalType": "uint256",
          "name": "gasPrice",
          "type": "uint256"
        },
        {
          "indexed": false,
          "internalType": "address",
          "name": "gasToken",
          "type": "address"
        },
        {
          "indexed": false,
          "internalType": "address payable",
          "name": "refundReceiver",
          "type": "address"
        },
        {
          "indexed": false,
          "internalType": "bytes",
          "name": "signatures",
          "type": "bytes"
        },
        {
          "indexed": false,
          "internalType": "bytes",
          "name": "additionalInfo",
          "type": "bytes"
        }
      ],
      "name": "SafeMultiSigTransaction",
      "type": "event"
    },
    {
      "anonymous": false,
      "inputs": [
        {
          "indexed": true,
          "internalType": "address",
          "name": "sender",
          "type": "address"
        },
        {
          "indexed": false,
          "internalType": "uint256",
          "name": "value",
          "type": "uint256"
        }
      ],
      "name": "SafeReceived",
      "type": "event"
    },
    {
      "anonymous": false,
      "inputs": [
        {
          "indexed": true,
          "internalType": "address",
          "name": "initiator",
          "type": "address"
        },
        {
          "indexed": false,
          "internalType": "address[]",
          "name": "owners",
          "type": "address[]"
        },
        {
          "indexed": false,
          "internalType": "uint256",
          "name": "threshold",
          "type": "uint256"
        },
        {
          "indexed": false,
          "internalType": "address",
          "name": "initializer",
          "type": "address"
        },
        {
          "indexed": false,
          "internalType": "address",
          "name": "fallbackHandler",
          "type": "address"
        }
      ],
      "name": "SafeSetup",
      "type": "event"
    },
    {
      "anonymous": false,
      "inputs": [
        {
          "indexed": true,
          "internalType": "bytes32",
          "name": "msgHash",
          "type": "bytes32"
        }
      ],
      "name": "SignMsg",
      "type": "event"
    },
    {
      "stateMutability": "nonpayable",
      "type": "fallback"
    },
    {
      "inputs": [],
      "name": "VERSION",
      "outputs": [
        {
          "internalType": "string",
          "name": "",
          "type": "string"
        }
      ],
      "stateMutability": "view",
      "type": "function"
    },
    {
      "inputs": [
        {
          "internalType": "address",
          "name": "owner",
          "type": "address"
        },
        {
          "internalType": "uint256",
          "name": "_threshold",
          "type": "uint256"
        }
      ],
      "name": "addOwnerWithThreshold",
      "outputs": [],
      "stateMutability": "nonpayable",
      "type": "function"
    },
    {
      "inputs": [
        {
          "internalType": "bytes32",
          "name": "hashToApprove",
          "type": "bytes32"
        }
      ],
      "name": "approveHash",
      "outputs": [],
      "stateMutability": "nonpayable",
      "type": "function"
    },
    {
      "inputs": [
        {
          "internalType": "address",
          "name": "",
          "type": "address"
        },
        {
          "internalType": "bytes32",
          "name": "",
          "type": "bytes32"
        }
      ],
      "name": "approvedHashes",
      "outputs": [
        {
          "internalType": "uint256",
          "name": "",
          "type": "uint256"
        }
      ],
      "stateMutability": "view",
      "type": "function"
    },
    {
      "inputs": [
        {
          "internalType": "uint256",
          "name": "_threshold",
          "type": "uint256"
        }
      ],
      "name": "changeThreshold",
      "outputs": [],
      "stateMutability": "nonpayable",
      "type": "function"
    },
    {
      "inputs": [
        {
          "internalType": "bytes32",
          "name": "dataHash",
          "type": "bytes32"
        },
        {
          "internalType": "bytes",
          "name": "data",
          "type": "bytes"
        },
        {
          "internalType": "bytes",
          "name": "signatures",
          "type": "bytes"
        },
        {
          "internalType": "uint256",
          "name": "requiredSignatures",
          "type": "uint256"
        }
      ],
      "name": "checkNSignatures",
      "outputs": [],
      "stateMutability": "view",
      "type": "function"
    },
    {
      "inputs": [
        {
          "internalType": "bytes32",
          "name": "dataHash",
          "type": "bytes32"
        },
        {
          "internalType": "bytes",
          "name": "data",
          "type": "bytes"
        },
        {
          "internalType": "bytes",
          "name": "signatures",
          "type": "bytes"
        }
      ],
      "name": "checkSignatures",
      "outputs": [],
      "stateMutability": "view",
      "type": "function"
    },
    {
      "inputs": [
        {
          "internalType": "address",
          "name": "prevModule",
          "type": "address"
        },
        {
          "internalType": "address",
          "name": "module",
          "type": "address"
        }
      ],
      "name": "disableModule",
      "outputs": [],
      "stateMutability": "nonpayable",
      "type": "function"
    },
    {
      "inputs": [],
      "name": "domainSeparator",
      "outputs": [
        {
          "internalType": "bytes32",
          "name": "",
          "type": "bytes32"
        }
      ],
      "stateMutability": "view",
      "type": "function"
    },
    {
      "inputs": [
        {
          "internalType": "address",
          "name": "module",
          "type": "address"
        }
      ],
      "name": "enableModule",
      "outputs": [],
      "stateMutability": "nonpayable",
      "type": "function"
    },
    {
      "inputs": [
        {
          "internalType": "address",
          "name": "to",
          "type": "address"
        },
        {
          "internalType": "uint256",
          "name": "value",
          "type": "uint256"
        },
        {
          "internalType": "bytes",
          "name": "data",
          "type": "bytes"
        },
        {
          "internalType": "enum Enum.Operation",
          "name": "operation",
          "type": "uint8"
        },
        {
          "internalType": "uint256",
          "name": "safeTxGas",
          "type": "uint256"
        },
        {
          "internalType": "uint256",
          "name": "baseGas",
          "type": "uint256"
        },
        {
          "internalType": "uint256",
          "name": "gasPrice",
          "type": "uint256"
        },
        {
          "internalType": "address",
          "name": "gasToken",
          "type": "address"
        },
        {
          "internalType": "address",
          "name": "refundReceiver",
          "type": "address"
        },
        {
          "internalType": "uint256",
          "name": "_nonce",
          "type": "uint256"
        }
      ],
      "name": "encodeTransactionData",
      "outputs": [
        {
          "internalType": "bytes",
          "name": "",
          "type": "bytes"
        }
      ],
      "stateMutability": "view",
      "type": "function"
    },
    {
      "inputs": [
        {
          "internalType": "address",
          "name": "to",
          "type": "address"
        },
        {
          "internalType": "uint256",
          "name": "value",
          "type": "uint256"
        },
        {
          "internalType": "bytes",
          "name": "data",
          "type": "bytes"
        },
        {
          "internalType": "enum Enum.Operation",
          "name": "operation",
          "type": "uint8"
        },
        {
          "internalType": "uint256",
          "name": "safeTxGas",
          "type": "uint256"
        },
        {
          "internalType": "uint256",
          "name": "baseGas",
          "type": "uint256"
        },
        {
          "internalType": "uint256",
          "name": "gasPrice",
          "type": "uint256"
        },
        {
          "internalType": "address",
          "name": "gasToken",
          "type": "address"
        },
        {
          "internalType": "address payable",
          "name": "refundReceiver",
          "type": "address"
        },
        {
          "internalType": "bytes",
          "name": "signatures",
          "type": "bytes"
        }
      ],
      "name": "execTransaction",
      "outputs": [
        {
          "internalType": "bool",
          "name": "",
          "type": "bool"
        }
      ],
      "stateMutability": "payable",
      "type": "function"
    },
    {
      "inputs": [
        {
          "internalType": "address",
          "name": "to",
          "type": "address"
        },
        {
          "internalType": "uint256",
          "name": "value",
          "type": "uint256"
        },
        {
          "internalType": "bytes",
          "name": "data",
          "type": "bytes"
        },
        {
          "internalType": "enum Enum.Operation",
          "name": "operation",
          "type": "uint8"
        }
      ],
      "name": "execTransactionFromModule",
      "outputs": [
        {
          "internalType": "bool",
          "name": "success",
          "type": "bool"
        }
      ],
      "stateMutability": "nonpayable",
      "type": "function"
    },
    {
      "inputs": [
        {
          "internalType": "address",
          "name": "to",
          "type": "address"
        },
        {
          "internalType": "uint256",
          "name": "value",
          "type": "uint256"
        },
        {
          "internalType": "bytes",
          "name": "data",
          "type": "bytes"
        },
        {
          "internalType": "enum Enum.Operation",
          "name": "operation",
          "type": "uint8"
        }
      ],
      "name": "execTransactionFromModuleReturnData",
      "outputs": [
        {
          "internalType": "bool",
          "name": "success",
          "type": "bool"
        },
        {
          "internalType": "bytes",
          "name": "returnData",
          "type": "bytes"
        }
      ],
      "stateMutability": "nonpayable",
      "type": "function"
    },
    {
      "inputs": [],
      "name": "getChainId",
      "outputs": [
        {
          "internalType": "uint256",
          "name": "",
          "type": "uint256"
        }
      ],
      "stateMutability": "view",
      "type": "function"
    },
    {
      "inputs": [
        {
          "internalType": "address",
          "name": "start",
          "type": "address"
        },
        {
          "internalType": "uint256",
          "name": "pageSize",
          "type": "uint256"
        }
      ],
      "name": "getModulesPaginated",
      "outputs": [
        {
          "internalType": "address[]",
          "name": "array",
          "type": "address[]"
        },
        {
          "internalType": "address",
          "name": "next",
          "type": "address"
        }
      ],
      "stateMutability": "view",
      "type": "function"
    },
    {
      "inputs": [],
      "name": "getOwners",
      "outputs": [
        {
          "internalType": "address[]",
          "name": "",
          "type": "address[]"
        }
      ],
      "stateMutability": "view",
      "type": "function"
    },
    {
      "inputs": [
        {
          "internalType": "uint256",
          "name": "offset",
          "type": "uint256"
        },
        {
          "internalType": "uint256",
          "name": "length",
          "type": "uint256"
        }
      ],
      "name": "getStorageAt",
      "outputs": [
        {
          "internalType": "bytes",
          "name": "",
          "type": "bytes"
        }
      ],
      "stateMutability": "view",
      "type": "function"
    },
    {
      "inputs": [],
      "name": "getThreshold",
      "outputs": [
        {
          "internalType": "uint256",
          "name": "",
          "type": "uint256"
        }
      ],
      "stateMutability": "view",
      "type": "function"
    },
    {
      "inputs": [
        {
          "internalType": "address",
          "name": "to",
          "type": "address"
        },
        {
          "internalType": "uint256",
          "name": "value",
          "type": "uint256"
        },
        {
          "internalType": "bytes",
          "name": "data",
          "type": "bytes"
        },
        {
          "internalType": "enum Enum.Operation",
          "name": "operation",
          "type": "uint8"
        },
        {
          "internalType": "uint256",
          "name": "safeTxGas",
          "type": "uint256"
        },
        {
          "internalType": "uint256",
          "name": "baseGas",
          "type": "uint256"
        },
        {
          "internalType": "uint256",
          "name": "gasPrice",
          "type": "uint256"
        },
        {
          "internalType": "address",
          "name": "gasToken",
          "type": "address"
        },
        {
          "internalType": "address",
          "name": "refundReceiver",
          "type": "address"
        },
        {
          "internalType": "uint256",
          "name": "_nonce",
          "type": "uint256"
        }
      ],
      "name": "getTransactionHash",
      "outputs": [
        {
          "internalType": "bytes32",
          "name": "",
          "type": "bytes32"
        }
      ],
      "stateMutability": "view",
      "type": "function"
    },
    {
      "inputs": [
        {
          "internalType": "address",
          "name": "module",
          "type": "address"
        }
      ],
      "name": "isModuleEnabled",
      "outputs": [
        {
          "internalType": "bool",
          "name": "",
          "type": "bool"
        }
      ],
      "stateMutability": "view",
      "type": "function"
    },
    {
      "inputs": [
        {
          "internalType": "address",
          "name": "owner",
          "type": "address"
        }
      ],
      "name": "isOwner",
      "outputs": [
        {
          "internalType": "bool",
          "name": "",
          "type": "bool"
        }
      ],
      "stateMutability": "view",
      "type": "function"
    },
    {
      "inputs": [],
      "name": "nonce",
      "outputs": [
        {
          "internalType": "uint256",
          "name": "",
          "type": "uint256"
        }
      ],
      "stateMutability": "view",
      "type": "function"
    },
    {
      "inputs": [
        {
          "internalType": "address",
          "name": "prevOwner",
          "type": "address"
        },
        {
          "internalType": "address",
          "name": "owner",
          "type": "address"
        },
        {
          "internalType": "uint256",
          "name": "_threshold",
          "type": "uint256"
        }
      ],
      "name": "removeOwner",
      "outputs": [],
      "stateMutability": "nonpayable",
      "type": "function"
    },
    {
      "inputs": [
        {
          "internalType": "address",
          "name": "to",
          "type": "address"
        },
        {
          "internalType": "uint256",
          "name": "value",
          "type": "uint256"
        },
        {
          "internalType": "bytes",
          "name": "data",
          "type": "bytes"
        },
        {
          "internalType": "enum Enum.Operation",
          "name": "operation",
          "type": "uint8"
        }
      ],
      "name": "requiredTxGas",
      "outputs": [
        {
          "internalType": "uint256",
          "name": "",
          "type": "uint256"
        }
      ],
      "stateMutability": "nonpayable",
      "type": "function"
    },
    {
      "inputs": [
        {
          "internalType": "address",
          "name": "handler",
          "type": "address"
        }
      ],
      "name": "setFallbackHandler",
      "outputs": [],
      "stateMutability": "nonpayable",
      "type": "function"
    },
    {
      "inputs": [
        {
          "internalType": "address",
          "name": "guard",
          "type": "address"
        }
      ],
      "name": "setGuard",
      "outputs": [],
      "stateMutability": "nonpayable",
      "type": "function"
    },
    {
      "inputs": [
        {
          "internalType": "address[]",
          "name": "_owners",
          "type": "address[]"
        },
        {
          "internalType": "uint256",
          "name": "_threshold",
          "type": "uint256"
        },
        {
          "internalType": "address",
          "name": "to",
          "type": "address"
        },
        {
          "internalType": "bytes",
          "name": "data",
          "type": "bytes"
        },
        {
          "internalType": "address",
          "name": "fallbackHandler",
          "type": "address"
        },
        {
          "internalType": "address",
          "name": "paymentToken",
          "type": "address"
        },
        {
          "internalType": "uint256",
          "name": "payment",
          "type": "uint256"
        },
        {
          "internalType": "address payable",
          "name": "paymentReceiver",
          "type": "address"
        }
      ],
      "name": "setup",
      "outputs": [],
      "stateMutability": "nonpayable",
      "type": "function"
    },
    {
      "inputs": [
        {
          "internalType": "bytes32",
          "name": "",
          "type": "bytes32"
        }
      ],
      "name": "signedMessages",
      "outputs": [
        {
          "internalType": "uint256",
          "name": "",
          "type": "uint256"
        }
      ],
      "stateMutability": "view",
      "type": "function"
    },
    {
      "inputs": [
        {
          "internalType": "address",
          "name": "targetContract",
          "type": "address"
        },
        {
          "internalType": "bytes",
          "name": "calldataPayload",
          "type": "bytes"
        }
      ],
      "name": "simulateAndRevert",
      "outputs": [],
      "stateMutability": "nonpayable",
      "type": "function"
    },
    {
      "inputs": [
        {
          "internalType": "address",
          "name": "prevOwner",
          "type": "address"
        },
        {
          "internalType": "address",
          "name": "oldOwner",
          "type": "address"
        },
        {
          "internalType": "address",
          "name": "newOwner",
          "type": "address"
        }
      ],
      "name": "swapOwner",
      "outputs": [],
      "stateMutability": "nonpayable",
      "type": "function"
    },
    {
      "stateMutability": "payable",
      "type": "receive"
    }
  ],
  "bytecode": "0x608060405234801561001057600080fd5b50600160045561359a806100256000396000f3fe6080604052600436106101dc5760003560e01c8063affed0e011610102578063e19a9dd911610095578063f08a032311610064578063f08a032314610620578063f698da2514610640578063f8dc5dd9146106a7578063ffa1ad74146106c757610218565b8063e19a9dd9146105ab578063e318b52b146105cb578063e75235b8146105eb578063e86637db1461060057610218565b8063cc2f8452116100d1578063cc2f84521461051d578063d4d9bdcd1461054b578063d8d11f781461056b578063e009cfde1461058b57610218565b8063affed0e0146104a7578063b4faba09146104bd578063b63e800d146104dd578063c4ca3a9c146104fd57610218565b80635624b25b1161017a5780636a761202116101495780636a7612021461041a5780637d8329741461042d578063934f3a1114610465578063a0e67e2b1461048557610218565b80635624b25b146103805780635ae6bd37146103ad578063610b5925146103da578063694e80c3146103fa57610218565b80632f54bf6e116101b65780632f54bf6e146102f55780633408e47014610315578063468721a7146103325780635229073f1461035257610218565b80630d582f131461027e57806312fb68e0146102a05780632d9ad53d146102c057610218565b366102185760405134815233907f3d0ce9bfc3ed7d6862dbb28b2dea94561fe714a1b4d019aa8af39730d1ad7c3d9060200160405180910390a2005b34801561022457600080fd5b507f6c9a6c4a39284e37ed1cf53d337577d14212a4870fb976a4366c693b939918d580548061024f57005b36600080373360601b365260008060143601600080855af190503d6000803e80610278573d6000fd5b503d6000f35b34801561028a57600080fd5b5061029e610299366004612995565b610710565b005b3480156102ac57600080fd5b5061029e6102bb366004612a64565b61089c565b3480156102cc57600080fd5b506102e06102db366004612ad9565b610dd7565b60405190151581526020015b60405180910390f35b34801561030157600080fd5b506102e0610310366004612ad9565b610e12565b34801561032157600080fd5b50465b6040519081526020016102ec565b34801561033e57600080fd5b506102e061034d366004612b05565b610e4a565b34801561035e57600080fd5b5061037261036d366004612b05565b610ea0565b6040516102ec929190612bb5565b34801561038c57600080fd5b506103a061039b366004612bd0565b610ed6565b6040516102ec9190612bf2565b3480156103b957600080fd5b506103246103c8366004612c05565b60076020526000908152604090205481565b3480156103e657600080fd5b5061029e6103f5366004612ad9565b610f52565b34801561040657600080fd5b5061029e610415366004612c05565b6110ac565b6102e0610428366004612c67565b61115c565b34801561043957600080fd5b50610324610448366004612995565b600860209081526000928352604080842090915290825290205481565b34801561047157600080fd5b5061029e610480366004612d40565b611204565b34801561049157600080fd5b5061049a611266565b6040516102ec9190612df2565b3480156104b357600080fd5b5061032460055481565b3480156104c957600080fd5b5061029e6104d8366004612e05565b611357565b3480156104e957600080fd5b5061029e6104f8366004612e55565b61137a565b34801561050957600080fd5b50610324610518366004612f4a565b61149b565b34801561052957600080fd5b5061053d610538366004612995565b611535565b6040516102ec929190612fbb565b34801561055757600080fd5b5061029e610566366004612c05565b61162f565b34801561057757600080fd5b50610324610586366004612fe6565b6116dc565b34801561059757600080fd5b5061029e6105a63660046130a7565b611709565b3480156105b757600080fd5b5061029e6105c6366004612ad9565b611850565b3480156105d757600080fd5b5061029e6105e63660046130e0565b6118b5565b3480156105f757600080fd5b50600454610324565b34801561060c57600080fd5b506103a061061b366004612fe6565b611aec565b34801561062c57600080fd5b5061029e61063b366004612ad9565b611c67565b34801561064c57600080fd5b5061032460007f47e79534a245952e8b16893a336b85a3d9ea9fa8c573f3d803afb92a794692184660408051602081019390935282015230606082015260800160405160208183030381529060405280519060200120905090565b3480156106b357600080fd5b5061029e6106c236600461312b565b611cd0565b3480156106d357600080fd5b506103a06040518060400160405280600581526020017f312e332e3000000000000000000000000000000000000000000000000000000081525081565b610718611e73565b6001600160a01b0382161580159061073a57506001600160a01b038216600114155b801561074f57506001600160a01b0382163014155b6107885760405162461bcd60e51b8152602060048201526005602482015264475332303360d81b60448201526064015b60405180910390fd5b6001600160a01b0382811660009081526002602052604090205416156107d85760405162461bcd60e51b815260206004820152600560248201526411d4cc8c0d60da1b604482015260640161077f565b60026020527fe90b7bceb6e7df5418fb78d8ee546e97c83a08bbccc01a0644d599ccd2a7c2e080546001600160a01b038481166000818152604081208054939094166001600160a01b03199384161790935560018352835490911617909155600380549161084583613182565b90915550506040516001600160a01b03831681527f9465fa0c962cc76958e6373a993326400c1c94f8be2fe3a952adfa7f60b2ea269060200160405180910390a1806004541461089857610898816110ac565b5050565b6108a7816041611ec4565b825110156108f75760405162461bcd60e51b815260206004820152600560248201527f4753303230000000000000000000000000000000000000000000000000000000604482015260640161077f565b6000808060008060005b86811015610dcb576041818102890160208101516040820151919092015160ff16955090935091506000849003610b63579193508391610942876041611ec4565b8210156109915760405162461bcd60e51b815260206004820152600560248201527f4753303231000000000000000000000000000000000000000000000000000000604482015260640161077f565b875161099e836020611f00565b11156109ec5760405162461bcd60e51b815260206004820152600560248201527f4753303232000000000000000000000000000000000000000000000000000000604482015260640161077f565b602082890181015189519091610a0f908390610a09908790611f00565b90611f00565b1115610a5d5760405162461bcd60e51b815260206004820152600560248201527f4753303233000000000000000000000000000000000000000000000000000000604482015260640161077f565b6040517f20c13b0b000000000000000000000000000000000000000000000000000000008082528a8501602001916001600160a01b038916906320c13b0b90610aac908f90869060040161319b565b602060405180830381865afa158015610ac9573d6000803e3d6000fd5b505050506040513d601f19601f82011682018060405250810190610aed91906131c0565b7fffffffff000000000000000000000000000000000000000000000000000000001614610b5c5760405162461bcd60e51b815260206004820152600560248201527f4753303234000000000000000000000000000000000000000000000000000000604482015260640161077f565b5050610d22565b8360ff16600103610bfd579193508391336001600160a01b0384161480610bac57506001600160a01b03851660009081526008602090815260408083208d845290915290205415155b610bf85760405162461bcd60e51b815260206004820152600560248201527f4753303235000000000000000000000000000000000000000000000000000000604482015260640161077f565b610d22565b601e8460ff161115610cc2576040517f19457468657265756d205369676e6564204d6573736167653a0a3332000000006020820152603c81018b9052600190605c0160405160208183030381529060405280519060200120600486610c629190613202565b6040805160008152602081018083529390935260ff90911690820152606081018590526080810184905260a0016020604051602081039080840390855afa158015610cb1573d6000803e3d6000fd5b505050602060405103519450610d22565b6040805160008152602081018083528c905260ff861691810191909152606081018490526080810183905260019060a0016020604051602081039080840390855afa158015610d15573d6000803e3d6000fd5b5050506020604051035194505b856001600160a01b0316856001600160a01b0316118015610d5c57506001600160a01b038581166000908152600260205260409020541615155b8015610d7257506001600160a01b038516600114155b610dbe5760405162461bcd60e51b815260206004820152600560248201527f4753303236000000000000000000000000000000000000000000000000000000604482015260640161077f565b9394508493600101610901565b50505050505050505050565b600060016001600160a01b03831614801590610e0c57506001600160a01b038281166000908152600160205260409020541615155b92915050565b60006001600160a01b038216600114801590610e0c5750506001600160a01b0390811660009081526002602052604090205416151590565b60007fb648d3644f584ed1c2232d53c46d87e693586486ad0d1175f8656013110b714e3386868686604051610e83959493929190613253565b60405180910390a1610e9785858585611f1c565b95945050505050565b60006060610eb086868686610e4a565b915060405160203d0181016040523d81523d6000602083013e8091505094509492505050565b60606000610ee583602061329e565b67ffffffffffffffff811115610efd57610efd6129c1565b6040519080825280601f01601f191660200182016040528015610f27576020820181803683370190505b50905060005b83811015610f4a5784810154602080830284010152600101610f2d565b509392505050565b610f5a611e73565b6001600160a01b03811615801590610f7c57506001600160a01b038116600114155b610fb05760405162461bcd60e51b8152602060048201526005602482015264475331303160d81b604482015260640161077f565b6001600160a01b0381811660009081526001602052604090205416156110185760405162461bcd60e51b815260206004820152600560248201527f4753313032000000000000000000000000000000000000000000000000000000604482015260640161077f565b600160208181527fcc69885fda6bcc1a4ace058b4a62bf5e179ea78fd58a1ccd71c22cc9b688792f80546001600160a01b03858116600081815260408082208054949095166001600160a01b031994851617909455959095528254168417909155519182527fecdf3a3effea5783a3c4c2140e677577666428d44ed9d474a0b3a4c9943f844091015b60405180910390a150565b6110b4611e73565b6003548111156110ee5760405162461bcd60e51b8152602060048201526005602482015264475332303160d81b604482015260640161077f565b60018110156111275760405162461bcd60e51b815260206004820152600560248201526423a999181960d91b604482015260640161077f565b60048190556040518181527f610f7ff2b304ae8903c3de74c60c6ab1f7d6226b3f52c5161905bb5ad4039c93906020016110a1565b600554600454604080516020810193909352339083015260608281019190915260009160800160405160208183030381529060405290507f66753cd2356569ee081232e3be8909b950e0a76c1f8460c3a5e3c2be32b11bed8d8d8d8d8d8d8d8d8d8d8d8c6040516111d89c9b9a999897969594939291906132de565b60405180910390a16111f38d8d8d8d8d8d8d8d8d8d8d61200b565b9d9c50505050505050505050505050565b600454806112545760405162461bcd60e51b815260206004820152600560248201527f4753303031000000000000000000000000000000000000000000000000000000604482015260640161077f565b6112608484848461089c565b50505050565b6060600060035467ffffffffffffffff811115611285576112856129c1565b6040519080825280602002602001820160405280156112ae578160200160208202803683370190505b506001600090815260026020527fe90b7bceb6e7df5418fb78d8ee546e97c83a08bbccc01a0644d599ccd2a7c2e054919250906001600160a01b03165b6001600160a01b03811660011461134f578083838151811061130f5761130f613376565b6001600160a01b0392831660209182029290920181019190915291811660009081526002909252604090912054168161134781613182565b9250506112eb565b509092915050565b600080825160208401855af480600052503d6020523d600060403e60403d016000fd5b6113b88a8a808060200260200160405190810160405280939291908181526020018383602002808284376000920191909152508c925061239d915050565b6001600160a01b038416156113ef576113ef847f6c9a6c4a39284e37ed1cf53d337577d14212a4870fb976a4366c693b939918d555565b61142f8787878080601f0160208091040260200160405190810160405280939291908181526020018383808284376000920191909152506125d992505050565b81156114465761144482600060018685612703565b505b336001600160a01b03167f141df868a6331af528e38c83b7aa03edc19be66e37ae67f9285bf4f8e3c6a1a88b8b8b8b8960405161148795949392919061338c565b60405180910390a250505050505050505050565b6000805a90506114e4878787878080601f01602080910402602001604051908101604052809392919081815260200183838082843760009201919091525089925050505a612839565b6114ed57600080fd5b60005a6114fa90836133f8565b90508060405160200161150f91815260200190565b60408051601f198184030181529082905262461bcd60e51b825261077f91600401612bf2565b606060008267ffffffffffffffff811115611552576115526129c1565b60405190808252806020026020018201604052801561157b578160200160208202803683370190505b506001600160a01b0380861660009081526001602052604081205492945091165b6001600160a01b038116158015906115be57506001600160a01b038116600114155b80156115c957508482105b1561162157808483815181106115e1576115e1613376565b6001600160a01b0392831660209182029290920181019190915291811660009081526001909252604090912054168161161981613182565b92505061159c565b908352919491935090915050565b336000908152600260205260409020546001600160a01b03166116945760405162461bcd60e51b815260206004820152600560248201527f4753303330000000000000000000000000000000000000000000000000000000604482015260640161077f565b336000818152600860209081526040808320858452909152808220600190555183917ff2a0eb156472d1440255b0d7c1e19cc07115d1051fe605b0dce69acfec884d9c91a350565b60006116f18c8c8c8c8c8c8c8c8c8c8c611aec565b8051906020012090509b9a5050505050505050505050565b611711611e73565b6001600160a01b0381161580159061173357506001600160a01b038116600114155b6117675760405162461bcd60e51b8152602060048201526005602482015264475331303160d81b604482015260640161077f565b6001600160a01b038281166000908152600160205260409020548116908216146117d35760405162461bcd60e51b815260206004820152600560248201527f4753313033000000000000000000000000000000000000000000000000000000604482015260640161077f565b6001600160a01b038181166000818152600160209081526040808320805488871685528285208054919097166001600160a01b03199182161790965592849052825490941690915591519081527faab4fa2b463f581b2b32cb3b7e3b704b9ce37cc209b5fb4d77e593ace405427691015b60405180910390a15050565b611858611e73565b7f4a204f620c8c5ccdca3fd54d003badd85ba500436a431f0cbda4f558c93c34c88181556040516001600160a01b03831681527f1151116914515bc0891ff9047a6cb32cf902546f83066499bcf8ba33d2353fa290602001611844565b6118bd611e73565b6001600160a01b038116158015906118df57506001600160a01b038116600114155b80156118f457506001600160a01b0381163014155b6119285760405162461bcd60e51b8152602060048201526005602482015264475332303360d81b604482015260640161077f565b6001600160a01b0381811660009081526002602052604090205416156119785760405162461bcd60e51b815260206004820152600560248201526411d4cc8c0d60da1b604482015260640161077f565b6001600160a01b0382161580159061199a57506001600160a01b038216600114155b6119ce5760405162461bcd60e51b8152602060048201526005602482015264475332303360d81b604482015260640161077f565b6001600160a01b03838116600090815260026020526040902054811690831614611a225760405162461bcd60e51b8152602060048201526005602482015264475332303560d81b604482015260640161077f565b6001600160a01b038281166000818152600260209081526040808320805487871680865283862080549289166001600160a01b0319938416179055968a1685528285208054821690971790965592849052825490941690915591519081527ff8d49fc529812e9a7c5c50e69c20f0dccc0db8fa95c98bc58cc9a4f1c1299eaf910160405180910390a16040516001600160a01b03821681527f9465fa0c962cc76958e6373a993326400c1c94f8be2fe3a952adfa7f60b2ea269060200160405180910390a1505050565b606060007fbb8310d486368db6bd6f849402fdd73ad53d316b5a4b2644ad6efe0f941286d860001b8d8d8d8d604051611b2692919061340b565b604051908190038120611b4c949392918e908e908e908e908e908e908e9060200161341b565b60408051601f19818403018152919052805160209091012090507f19000000000000000000000000000000000000000000000000000000000000007f0100000000000000000000000000000000000000000000000000000000000000611c0260007f47e79534a245952e8b16893a336b85a3d9ea9fa8c573f3d803afb92a794692184660408051602081019390935282015230606082015260800160405160208183030381529060405280519060200120905090565b6040517fff0000000000000000000000000000000000000000000000000000000000000093841660208201529290911660218301526022820152604281018290526062016040516020818303038152906040529150509b9a5050505050505050505050565b611c6f611e73565b611c97817f6c9a6c4a39284e37ed1cf53d337577d14212a4870fb976a4366c693b939918d555565b6040516001600160a01b03821681527f5ac6c46c93c8d0e53714ba3b53db3e7c046da994313d7ed0d192028bc7c228b0906020016110a1565b611cd8611e73565b806001600354611ce891906133f8565b1015611d1e5760405162461bcd60e51b8152602060048201526005602482015264475332303160d81b604482015260640161077f565b6001600160a01b03821615801590611d4057506001600160a01b038216600114155b611d745760405162461bcd60e51b8152602060048201526005602482015264475332303360d81b604482015260640161077f565b6001600160a01b03838116600090815260026020526040902054811690831614611dc85760405162461bcd60e51b8152602060048201526005602482015264475332303560d81b604482015260640161077f565b6001600160a01b03828116600081815260026020526040808220805488861684529183208054929095166001600160a01b03199283161790945591815282549091169091556003805491611e1b8361348b565b90915550506040516001600160a01b03831681527ff8d49fc529812e9a7c5c50e69c20f0dccc0db8fa95c98bc58cc9a4f1c1299eaf9060200160405180910390a18060045414611e6e57611e6e816110ac565b505050565b333014611ec25760405162461bcd60e51b815260206004820152600560248201527f4753303331000000000000000000000000000000000000000000000000000000604482015260640161077f565b565b600082600003611ed657506000610e0c565b6000611ee2838561329e565b905082611eef85836134a2565b14611ef957600080fd5b9392505050565b600080611f0d83856134c4565b905083811015611ef957600080fd5b600033600114801590611f465750336000908152600160205260409020546001600160a01b031615155b611f925760405162461bcd60e51b815260206004820152600560248201527f4753313034000000000000000000000000000000000000000000000000000000604482015260640161077f565b611f9f858585855a612839565b90508015611fd75760405133907f6895c13664aa4f67288b25d7a21d7aaa34916e355fb9b6fae0a139a9085becb890600090a2612003565b60405133907facd2c8702804128fdb0db2bb49f6d127dd0181c13fd45dbfe16de0930e2bd37590600090a25b949350505050565b60008060006120258e8e8e8e8e8e8e8e8e8e600554611aec565b60058054919250600061203783613182565b9091555050805160208201209150612050828286611204565b50600061207b7f4a204f620c8c5ccdca3fd54d003badd85ba500436a431f0cbda4f558c93c34c85490565b90506001600160a01b0381161561210157806001600160a01b03166375f0bb528f8f8f8f8f8f8f8f8f8f8f336040518d63ffffffff1660e01b81526004016120ce9c9b9a999897969594939291906134d7565b600060405180830381600087803b1580156120e857600080fd5b505af11580156120fc573d6000803e3d6000fd5b505050505b61212d6121108a6109c46134c4565b603f61211d8c604061329e565b61212791906134a2565b9061287e565b612139906101f46134c4565b5a10156121885760405162461bcd60e51b815260206004820152600560248201527f4753303130000000000000000000000000000000000000000000000000000000604482015260640161077f565b60005a90506121f98f8f8f8f8080601f016020809104026020016040519081016040528093929190818152602001838380828437600081840152601f19601f820116905080830192505050505050508e8c6000146121e6578e612839565b6109c45a6121f491906133f8565b612839565b93506122065a8290612895565b9050838061221357508915155b8061221d57508715155b6122695760405162461bcd60e51b815260206004820152600560248201527f4753303133000000000000000000000000000000000000000000000000000000604482015260640161077f565b600088156122815761227e828b8b8b8b612703565b90505b84156122c55760408051858152602081018390527f442e715f626346e8c54381002da614f62bee8d27386535b2521ec8540898556e910160405180910390a16122ff565b60408051858152602081018390527f23428b18acfb3ea64b08dc0c1d296ea9c09702c09083ca5272e64d115b687d23910160405180910390a15b50506001600160a01b0381161561238c576040517f932713680000000000000000000000000000000000000000000000000000000081526004810183905283151560248201526001600160a01b03821690639327136890604401600060405180830381600087803b15801561237357600080fd5b505af1158015612387573d6000803e3d6000fd5b505050505b50509b9a5050505050505050505050565b600454156123ed5760405162461bcd60e51b815260206004820152600560248201527f4753323030000000000000000000000000000000000000000000000000000000604482015260640161077f565b81518111156124265760405162461bcd60e51b8152602060048201526005602482015264475332303160d81b604482015260640161077f565b600181101561245f5760405162461bcd60e51b815260206004820152600560248201526423a999181960d91b604482015260640161077f565b600160005b83518110156125a657600084828151811061248157612481613376565b6020026020010151905060006001600160a01b0316816001600160a01b0316141580156124b857506001600160a01b038116600114155b80156124cd57506001600160a01b0381163014155b80156124eb5750806001600160a01b0316836001600160a01b031614155b61251f5760405162461bcd60e51b8152602060048201526005602482015264475332303360d81b604482015260640161077f565b6001600160a01b03818116600090815260026020526040902054161561256f5760405162461bcd60e51b815260206004820152600560248201526411d4cc8c0d60da1b604482015260640161077f565b6001600160a01b03928316600090815260026020526040902080546001600160a01b03191693821693909317909255600101612464565b506001600160a01b0316600090815260026020526040902080546001600160a01b03191660011790559051600355600455565b600160008190526020527fcc69885fda6bcc1a4ace058b4a62bf5e179ea78fd58a1ccd71c22cc9b688792f546001600160a01b03161561265b5760405162461bcd60e51b815260206004820152600560248201527f4753313030000000000000000000000000000000000000000000000000000000604482015260640161077f565b6001600081905260208190527fcc69885fda6bcc1a4ace058b4a62bf5e179ea78fd58a1ccd71c22cc9b688792f80546001600160a01b03191690911790556001600160a01b03821615610898576126b78260008360015a612839565b6108985760405162461bcd60e51b815260206004820152600560248201527f4753303030000000000000000000000000000000000000000000000000000000604482015260640161077f565b6000806001600160a01b0383161561271b578261271d565b325b90506001600160a01b0384166127c85761274f3a861061273d573a61273f565b855b6127498989611f00565b90611ec4565b6040519092506001600160a01b0382169083156108fc029084906000818181858888f193505050506127c35760405162461bcd60e51b815260206004820152600560248201527f4753303131000000000000000000000000000000000000000000000000000000604482015260640161077f565b61282f565b6127d6856127498989611f00565b91506127e38482846128b0565b61282f5760405162461bcd60e51b815260206004820152600560248201527f4753303132000000000000000000000000000000000000000000000000000000604482015260640161077f565b5095945050505050565b6000600183600181111561284f5761284f61321b565b03612867576000808551602087018986f49050610e97565b600080855160208701888a87f19695505050505050565b60008183101561288e5781611ef9565b5090919050565b6000828211156128a457600080fd5b600061200383856133f8565b604080516001600160a01b03841660248201526044808201849052825180830390910181526064909101909152602080820180517bffffffffffffffffffffffffffffffffffffffffffffffffffffffff167fa9059cbb000000000000000000000000000000000000000000000000000000001781528251600093929184919082896127105a03f13d801561295057602081146129585760009350612963565b819350612963565b600051158215171593505b5050509392505050565b6001600160a01b038116811461298257600080fd5b50565b80356129908161296d565b919050565b600080604083850312156129a857600080fd5b82356129b38161296d565b946020939093013593505050565b634e487b7160e01b600052604160045260246000fd5b600082601f8301126129e857600080fd5b813567ffffffffffffffff80821115612a0357612a036129c1565b604051601f8301601f19908116603f01168101908282118183101715612a2b57612a2b6129c1565b81604052838152866020858801011115612a4457600080fd5b836020870160208301376000602085830101528094505050505092915050565b60008060008060808587031215612a7a57600080fd5b84359350602085013567ffffffffffffffff80821115612a9957600080fd5b612aa5888389016129d7565b94506040870135915080821115612abb57600080fd5b50612ac8878288016129d7565b949793965093946060013593505050565b600060208284031215612aeb57600080fd5b8135611ef98161296d565b80356002811061299057600080fd5b60008060008060808587031215612b1b57600080fd5b8435612b268161296d565b935060208501359250604085013567ffffffffffffffff811115612b4957600080fd5b612b55878288016129d7565b925050612b6460608601612af6565b905092959194509250565b6000815180845260005b81811015612b9557602081850181015186830182015201612b79565b506000602082860101526020601f19601f83011685010191505092915050565b82151581526040602082015260006120036040830184612b6f565b60008060408385031215612be357600080fd5b50508035926020909101359150565b602081526000611ef96020830184612b6f565b600060208284031215612c1757600080fd5b5035919050565b60008083601f840112612c3057600080fd5b50813567ffffffffffffffff811115612c4857600080fd5b602083019150836020828501011115612c6057600080fd5b9250929050565b60008060008060008060008060008060006101408c8e031215612c8957600080fd5b612c928c612985565b9a5060208c0135995067ffffffffffffffff8060408e01351115612cb557600080fd5b612cc58e60408f01358f01612c1e565b909a509850612cd660608e01612af6565b975060808d0135965060a08d0135955060c08d01359450612cf960e08e01612985565b9350612d086101008e01612985565b9250806101208e01351115612d1c57600080fd5b50612d2e8d6101208e01358e016129d7565b90509295989b509295989b9093969950565b600080600060608486031215612d5557600080fd5b83359250602084013567ffffffffffffffff80821115612d7457600080fd5b612d80878388016129d7565b93506040860135915080821115612d9657600080fd5b50612da3868287016129d7565b9150509250925092565b60008151808452602080850194506020840160005b83811015612de75781516001600160a01b031687529582019590820190600101612dc2565b509495945050505050565b602081526000611ef96020830184612dad565b60008060408385031215612e1857600080fd5b8235612e238161296d565b9150602083013567ffffffffffffffff811115612e3f57600080fd5b612e4b858286016129d7565b9150509250929050565b6000806000806000806000806000806101008b8d031215612e7557600080fd5b8a3567ffffffffffffffff80821115612e8d57600080fd5b818d0191508d601f830112612ea157600080fd5b813581811115612eb057600080fd5b8e60208260051b8501011115612ec557600080fd5b60208381019d50909b508d01359950612ee060408e01612985565b985060608d0135915080821115612ef657600080fd5b50612f038d828e01612c1e565b9097509550612f16905060808c01612985565b9350612f2460a08c01612985565b925060c08b01359150612f3960e08c01612985565b90509295989b9194979a5092959850565b600080600080600060808688031215612f6257600080fd5b8535612f6d8161296d565b945060208601359350604086013567ffffffffffffffff811115612f9057600080fd5b612f9c88828901612c1e565b9094509250612faf905060608701612af6565b90509295509295909350565b604081526000612fce6040830185612dad565b90506001600160a01b03831660208301529392505050565b60008060008060008060008060008060006101408c8e03121561300857600080fd5b8b356130138161296d565b9a5060208c0135995060408c013567ffffffffffffffff81111561303657600080fd5b6130428e828f01612c1e565b909a509850613055905060608d01612af6565b965060808c0135955060a08c0135945060c08c0135935060e08c013561307a8161296d565b92506101008c013561308b8161296d565b809250506101208c013590509295989b509295989b9093969950565b600080604083850312156130ba57600080fd5b82356130c58161296d565b915060208301356130d58161296d565b809150509250929050565b6000806000606084860312156130f557600080fd5b83356131008161296d565b925060208401356131108161296d565b915060408401356131208161296d565b809150509250925092565b60008060006060848603121561314057600080fd5b833561314b8161296d565b9250602084013561315b8161296d565b929592945050506040919091013590565b634e487b7160e01b600052601160045260246000fd5b6000600182016131945761319461316c565b5060010190565b6040815260006131ae6040830185612b6f565b8281036020840152610e978185612b6f565b6000602082840312156131d257600080fd5b81517fffffffff0000000000000000000000000000000000000000000000000000000081168114611ef957600080fd5b60ff8281168282160390811115610e0c57610e0c61316c565b634e487b7160e01b600052602160045260246000fd5b6002811061324f57634e487b7160e01b600052602160045260246000fd5b9052565b60006001600160a01b03808816835280871660208401525084604083015260a0606083015261328560a0830185612b6f565b90506132946080830184613231565b9695505050505050565b8082028115828204841417610e0c57610e0c61316c565b81835281816020850137506000828201602090810191909152601f909101601f19169091010190565b60006001600160a01b03808f1683528d6020840152610160604084015261330a61016084018d8f6132b5565b613317606085018d613231565b8a60808501528960a08501528860c085015281881660e085015281871661010085015283810361012085015261334d8187612b6f565b9150508281036101408401526133638185612b6f565b9f9e505050505050505050505050505050565b634e487b7160e01b600052603260045260246000fd5b6080808252810185905260008660a08301825b888110156133cf5782356133b28161296d565b6001600160a01b031682526020928301929091019060010161339f565b50602084019690965250506001600160a01b039283166040820152911660609091015292915050565b81810381811115610e0c57610e0c61316c565b8183823760009101908152919050565b6000610160820190508c82526001600160a01b03808d1660208401528b60408401528a6060840152613450608084018b613231565b60a083019890985260c082019690965260e0810194909452918516610100840152909316610120820152610140019190915295945050505050565b60008161349a5761349a61316c565b506000190190565b6000826134bf57634e487b7160e01b600052601260045260246000fd5b500490565b80820180821115610e0c57610e0c61316c565b60006001600160a01b03808f1683528d6020840152610160604084015261350361016084018d8f6132b5565b613510606085018d613231565b8a60808501528960a08501528860c085015281881660e08501528187166101008501528381036101208501526135468187612b6f565b925050808416610140840152509d9c5050505050505050505050505056fea2646970667358221220ba1114d01c8a434009db11098d5d5fa6ee7476df0548843a3f5ed63e712a20fd64736f6c63430008180033",
  "linkReferences": {},
  "deployedLinkReferences": {}
}