{
  "_format": "hh-sol-artifact-1",
  "contractName": "SafeFactory",
  "sourceName": "contracts/safe/SafeFactory.sol",
  "abi": [
    {
      "inputs": [
        {
          "internalType": "address",
          "name": "_proxyFactory",
          "type": "address"
        },
        {
          "internalType": "address",
          "name": "_singleton",
          "type": "address"
        }
      ],
      "stateMutability": "nonpayable",
      "type": "constructor"
    },
    {
      "inputs": [
        {
          "internalType": "address[]",
          "name": "owners",
          "type": "address[]"
        },
        {
          "internalType": "uint256",
          "name": "threshold",
          "type": "uint256"
        }
      ],
      "name": "createSafe",
      "outputs": [
        {
          "internalType": "address",
          "name": "",
          "type": "address"
        }
      ],
      "stateMutability": "nonpayable",
      "type": "function"
    },
    {
      "inputs": [],
      "name": "proxyFactory",
      "outputs": [
        {
          "internalType": "contract GnosisSafeProxyFactory",
          "name": "",
          "type": "address"
        }
      ],
      "stateMutability": "view",
      "type": "function"
    },
    {
      "inputs": [],
      "name": "singleton",
      "outputs": [
        {
          "internalType": "address",
          "name": "",
          "type": "address"
        }
      ],
      "stateMutability": "view",
      "type": "function"
    }
  ],
  "bytecode": "0x608060405234801561001057600080fd5b506040516104c03803806104c083398101604081905261002f9161007c565b600080546001600160a01b039384166001600160a01b031991821617909155600180549290931691161790556100af565b80516001600160a01b038116811461007757600080fd5b919050565b6000806040838503121561008f57600080fd5b61009883610060565b91506100a660208401610060565b90509250929050565b610402806100be6000396000f3fe608060405234801561001057600080fd5b50600436106100415760003560e01c806328c47c6d14610046578063b62654fb14610075578063c10f1a7514610088575b600080fd5b610059610054366004610224565b61009b565b6040516001600160a01b03909116815260200160405180910390f35b600154610059906001600160a01b031681565b600054610059906001600160a01b031681565b60008054600154604080517f61b69abd0000000000000000000000000000000000000000000000000000000081526001600160a01b039283166004820152602481019190915260448101849052839291909116906361b69abd906064016020604051808303816000875af1158015610117573d6000803e3d6000fd5b505050506040513d601f19601f8201168201806040525081019061013b91906102ef565b6040517fb63e800d00000000000000000000000000000000000000000000000000000000815290915081906001600160a01b0382169063b63e800d9061019290889088906000908190819081908190600401610313565b600060405180830381600087803b1580156101ac57600080fd5b505af11580156101c0573d6000803e3d6000fd5b5092979650505050505050565b7f4e487b7100000000000000000000000000000000000000000000000000000000600052604160045260246000fd5b6001600160a01b038116811461021157600080fd5b50565b803561021f816101fc565b919050565b6000806040838503121561023757600080fd5b823567ffffffffffffffff8082111561024f57600080fd5b818501915085601f83011261026357600080fd5b8135602082821115610277576102776101cd565b8160051b604051601f19603f8301168101818110868211171561029c5761029c6101cd565b6040529283528183019350848101820192898411156102ba57600080fd5b948201945b838610156102df576102d086610214565b855294820194938201936102bf565b9997909101359750505050505050565b60006020828403121561030157600080fd5b815161030c816101fc565b9392505050565b6101008082528851908201819052600090610120830190602090818c01845b828110156103575781516001600160a01b031685529383019390830190600101610332565b5050505088602084015261037660408401896001600160a01b03169052565b8281036060840152600081526001600160a01b038716608084015260200190506001600160a01b03851660a08301528360c08301526103c060e08301846001600160a01b03169052565b9897505050505050505056fea2646970667358221220e99766cca6a3e7297a202e9568dc52f42fc75a611875cf047e34627825cb648b64736f6c63430008180033",
  "linkReferences": {},
  "deployedLinkReferences": {}
}