{
  "_format": "hh-sol-artifact-1",
  "contractName": "StorageAccessible",
  "sourceName": "contracts/safe/common/StorageAccessible.sol",
  "abi": [
    {
      "inputs": [
        {
          "internalType": "uint256",
          "name": "offset",
          "type": "uint256"
        },
        {
          "internalType": "uint256",
          "name": "length",
          "type": "uint256"
        }
      ],
      "name": "getStorageAt",
      "outputs": [
        {
          "internalType": "bytes",
          "name": "",
          "type": "bytes"
        }
      ],
      "stateMutability": "view",
      "type": "function"
    },
    {
      "inputs": [
        {
          "internalType": "address",
          "name": "targetContract",
          "type": "address"
        },
        {
          "internalType": "bytes",
          "name": "calldataPayload",
          "type": "bytes"
        }
      ],
      "name": "simulateAndRevert",
      "outputs": [],
      "stateMutability": "nonpayable",
      "type": "function"
    }
  ],
  "bytecode": "0x608060405234801561001057600080fd5b506102d9806100206000396000f3fe608060405234801561001057600080fd5b50600436106100365760003560e01c80635624b25b1461003b578063b4faba0914610064575b600080fd5b61004e61004936600461011a565b610079565b60405161005b919061013c565b60405180910390f35b6100776100723660046101a1565b6100f7565b005b6060600061008883602061027e565b67ffffffffffffffff8111156100a0576100a061018b565b6040519080825280601f01601f1916602001820160405280156100ca576020820181803683370190505b50905060005b838110156100ed57848101546020808302840101526001016100d0565b5090505b92915050565b600080825160208401855af480600052503d6020523d600060403e60403d016000fd5b6000806040838503121561012d57600080fd5b50508035926020909101359150565b60006020808352835180602085015260005b8181101561016a5785810183015185820160400152820161014e565b506000604082860101526040601f19601f8301168501019250505092915050565b634e487b7160e01b600052604160045260246000fd5b600080604083850312156101b457600080fd5b823573ffffffffffffffffffffffffffffffffffffffff811681146101d857600080fd5b9150602083013567ffffffffffffffff808211156101f557600080fd5b818501915085601f83011261020957600080fd5b81358181111561021b5761021b61018b565b604051601f8201601f19908116603f011681019083821181831017156102435761024361018b565b8160405282815288602084870101111561025c57600080fd5b8260208601602083013760006020848301015280955050505050509250929050565b80820281158282048414176100f157634e487b7160e01b600052601160045260246000fdfea2646970667358221220d33ca5f66beb89228cdac41ff052da0a772124f936859b4a6cf863bb39c8d16164736f6c63430008180033",
  "linkReferences": {},
  "deployedLinkReferences": {}
}