{
    "_format": "hh-sol-artifact-1",
    "contractName": "OXONFTCollection",
    "sourceName": "contracts/nft_collection.sol",
    "abi": [
        {
            "inputs": [
                {
                    "internalType": "string",
                    "name": "_symbol",
                    "type": "string"
                }
            ],
            "stateMutability": "nonpayable",
            "type": "constructor"
        },
        {
            "anonymous": false,
            "inputs": [
                {
                    "indexed": true,
                    "internalType": "address",
                    "name": "previousOwner",
                    "type": "address"
                },
                {
                    "indexed": true,
                    "internalType": "address",
                    "name": "newOwner",
                    "type": "address"
                }
            ],
            "name": "OwnershipTransferred",
            "type": "event"
        },
        {
            "inputs": [
                {
                    "internalType": "address",
                    "name": "_address",
                    "type": "address"
                }
            ],
            "name": "isNFT",
            "outputs": [
                {
                    "internalType": "bool",
                    "name": "",
                    "type": "bool"
                }
            ],
            "stateMutability": "view",
            "type": "function"
        },
        {
            "inputs": [
                {
                    "internalType": "string",
                    "name": "name",
                    "type": "string"
                },
                {
                    "internalType": "string",
                    "name": "cid",
                    "type": "string"
                }
            ],
            "name": "mintNFT",
            "outputs": [
                {
                    "internalType": "address",
                    "name": "",
                    "type": "address"
                }
            ],
            "stateMutability": "nonpayable",
            "type": "function"
        },
        {
            "inputs": [
                {
                    "internalType": "address",
                    "name": "",
                    "type": "address"
                }
            ],
            "name": "nfts",
            "outputs": [
                {
                    "internalType": "bool",
                    "name": "",
                    "type": "bool"
                }
            ],
            "stateMutability": "view",
            "type": "function"
        },
        {
            "inputs": [],
            "name": "owner",
            "outputs": [
                {
                    "internalType": "address",
                    "name": "",
                    "type": "address"
                }
            ],
            "stateMutability": "view",
            "type": "function"
        },
        {
            "inputs": [],
            "name": "renounceOwnership",
            "outputs": [],
            "stateMutability": "nonpayable",
            "type": "function"
        },
        {
            "inputs": [],
            "name": "symbol",
            "outputs": [
                {
                    "internalType": "string",
                    "name": "",
                    "type": "string"
                }
            ],
            "stateMutability": "view",
            "type": "function"
        },
        {
            "inputs": [
                {
                    "internalType": "address",
                    "name": "newOwner",
                    "type": "address"
                }
            ],
            "name": "transferOwnership",
            "outputs": [],
            "stateMutability": "nonpayable",
            "type": "function"
        }
    ],
    "bytecode": "0x60806040523480156200001157600080fd5b5060405162001ac538038062001ac58339810160408190526200003491620000bb565b6200003f3362000055565b60026200004d828262000221565b5050620002ed565b600080546001600160a01b038381166001600160a01b0319831681178455604051919092169283917f8be0079c531659141344cd1fd0a4f28419497f9722a3daafe3b4186f6b6457e09190a35050565b634e487b7160e01b600052604160045260246000fd5b60006020808385031215620000cf57600080fd5b82516001600160401b0380821115620000e757600080fd5b818501915085601f830112620000fc57600080fd5b815181811115620001115762000111620000a5565b604051601f8201601f19908116603f011681019083821181831017156200013c576200013c620000a5565b8160405282815288868487010111156200015557600080fd5b600093505b828410156200017957848401860151818501870152928501926200015a565b600086848301015280965050505050505092915050565b600181811c90821680620001a557607f821691505b602082108103620001c657634e487b7160e01b600052602260045260246000fd5b50919050565b601f8211156200021c576000816000526020600020601f850160051c81016020861015620001f75750805b601f850160051c820191505b81811015620002185782815560010162000203565b5050505b505050565b81516001600160401b038111156200023d576200023d620000a5565b62000255816200024e845462000190565b84620001cc565b602080601f8311600181146200028d5760008415620002745750858301515b600019600386901b1c1916600185901b17855562000218565b600085815260208120601f198616915b82811015620002be578886015182559484019460019091019084016200029d565b5085821015620002dd5787850151600019600388901b60f8161c191681555b5050505050600190811b01905550565b6117c880620002fd6000396000f3fe608060405234801561001057600080fd5b506004361061007d5760003560e01c806395d89b411161005b57806395d89b41146100e9578063b31b85c9146100fe578063e96055441461012a578063f2fde38b1461013d57600080fd5b8063599db0f814610082578063715018a6146100ba5780638da5cb5b146100c4575b600080fd5b6100a56100903660046105f4565b60016020526000908152604090205460ff1681565b60405190151581526020015b60405180910390f35b6100c2610150565b005b6000546001600160a01b03165b6040516001600160a01b0390911681526020016100b1565b6100f16101bb565b6040516100b1919061066a565b6100a561010c3660046105f4565b6001600160a01b031660009081526001602052604090205460ff1690565b6100d1610138366004610720565b610249565b6100c261014b3660046105f4565b61036c565b6000546001600160a01b031633146101af5760405162461bcd60e51b815260206004820181905260248201527f4f776e61626c653a2063616c6c6572206973206e6f7420746865206f776e657260448201526064015b60405180910390fd5b6101b9600061044e565b565b600280546101c890610784565b80601f01602080910402602001604051908101604052809291908181526020018280546101f490610784565b80156102415780601f1061021657610100808354040283529160200191610241565b820191906000526020600020905b81548152906001019060200180831161022457829003601f168201915b505050505081565b600080546001600160a01b031633146102a45760405162461bcd60e51b815260206004820181905260248201527f4f776e61626c653a2063616c6c6572206973206e6f7420746865206f776e657260448201526064016101a6565b60006102b033846104b6565b905060006102e2600083604051806020016102ca906105e7565b601f1982820381018352601f909101166040526104da565b6040517f5c6d8da10000000000000000000000000000000000000000000000000000000081529091506001600160a01b03821690635c6d8da190610331908890600290899030906004016107be565b600060405180830381600087803b15801561034b57600080fd5b505af115801561035f573d6000803e3d6000fd5b5092979650505050505050565b6000546001600160a01b031633146103c65760405162461bcd60e51b815260206004820181905260248201527f4f776e61626c653a2063616c6c6572206973206e6f7420746865206f776e657260448201526064016101a6565b6001600160a01b0381166104425760405162461bcd60e51b815260206004820152602660248201527f4f776e61626c653a206e6577206f776e657220697320746865207a65726f206160448201527f646472657373000000000000000000000000000000000000000000000000000060648201526084016101a6565b61044b8161044e565b50565b600080546001600160a01b038381167fffffffffffffffffffffffff0000000000000000000000000000000000000000831681178455604051919092169283917f8be0079c531659141344cd1fd0a4f28419497f9722a3daafe3b4186f6b6457e09190a35050565b600081606084901b826104c8836108ae565b60809290921b90911795945050505050565b6000808447101561052d5760405162461bcd60e51b815260206004820152601d60248201527f437265617465323a20696e73756666696369656e742062616c616e636500000060448201526064016101a6565b825160000361057e5760405162461bcd60e51b815260206004820181905260248201527f437265617465323a2062797465636f6465206c656e677468206973207a65726f60448201526064016101a6565b8383516020850187f590506001600160a01b0381166105df5760405162461bcd60e51b815260206004820152601960248201527f437265617465323a204661696c6564206f6e206465706c6f790000000000000060448201526064016101a6565b949350505050565b610e94806108ff83390190565b60006020828403121561060657600080fd5b81356001600160a01b038116811461061d57600080fd5b9392505050565b6000815180845260005b8181101561064a5760208185018101518683018201520161062e565b506000602082860101526020601f19601f83011685010191505092915050565b60208152600061061d6020830184610624565b634e487b7160e01b600052604160045260246000fd5b600082601f8301126106a457600080fd5b813567ffffffffffffffff808211156106bf576106bf61067d565b604051601f8301601f19908116603f011681019082821181831017156106e7576106e761067d565b8160405283815286602085880101111561070057600080fd5b836020870160208301376000602085830101528094505050505092915050565b6000806040838503121561073357600080fd5b823567ffffffffffffffff8082111561074b57600080fd5b61075786838701610693565b9350602085013591508082111561076d57600080fd5b5061077a85828601610693565b9150509250929050565b600181811c9082168061079857607f821691505b6020821081036107b857634e487b7160e01b600052602260045260246000fd5b50919050565b6080815260006107d16080830187610624565b60208382036020850152600087548160018260011c915060018316806107f857607f831692505b60208310810361081657634e487b7160e01b85526022600452602485fd5b828752602087019650808015610833576001811461084957610874565b60ff198516885283151560051b88019550610874565b60008d81526020902060005b8581101561086e5781548a820152908401908801610855565b89019650505b5050505050848103604086015261088b8188610624565b93505050506108a560608301846001600160a01b03169052565b95945050505050565b6000815160208301517fffffffffffffffffffffffffffffffff00000000000000000000000000000000808216935060108310156108f65780818460100360031b1b83161693505b50505091905056fe608060405234801561001057600080fd5b50604051610e94380380610e9483398101604081905261002f916100b8565b6100383361005d565b600180546001600160a01b0319166001600160a01b03929092169190911790556100e8565b600080546001600160a01b038381166201000081810262010000600160b01b0319851617855560405193049190911692909183917f8be0079c531659141344cd1fd0a4f28419497f9722a3daafe3b4186f6b6457e091a35050565b6000602082840312156100ca57600080fd5b81516001600160a01b03811681146100e157600080fd5b9392505050565b610d9d806100f76000396000f3fe6080604052600436106100655760003560e01c8063715018a611610043578063715018a6146101445780638da5cb5b14610159578063f2fde38b1461019457610065565b80633659cfe6146100f15780634f1ef286146101115780635c6d8da114610124575b34801561007157600080fd5b506001546001600160a01b0316806100d05760405162461bcd60e51b815260206004820152601660248201527f496d706c656d656e746174696f6e206e6f74207365740000000000000000000060448201526064015b60405180910390fd5b3660008037600080366000845af48080156100ea573d6000f35b600080fd5b005b3480156100fd57600080fd5b506100ef61010c366004610a92565b6101b4565b6100ef61011f366004610b52565b6101db565b34801561013057600080fd5b506100ef61013f366004610bd4565b6101f4565b34801561015057600080fd5b506100ef610437565b34801561016557600080fd5b506000546201000090046001600160a01b03166040516001600160a01b03909116815260200160405180910390f35b3480156101a057600080fd5b506100ef6101af366004610a92565b6104a4565b6101bd8161058a565b6101d8816040518060200160405280600081525060006105eb565b50565b6101e48261058a565b6101f0828260016105eb565b5050565b6000546001600160a01b03620100009091041633146102555760405162461bcd60e51b815260206004820181905260248201527f4f776e61626c653a2063616c6c6572206973206e6f7420746865206f776e657260448201526064016100c7565b600054610100900460ff168061026e575060005460ff16155b6102e05760405162461bcd60e51b815260206004820152602e60248201527f496e697469616c697a61626c653a20636f6e747261637420697320616c72656160448201527f647920696e697469616c697a656400000000000000000000000000000000000060648201526084016100c7565b600054610100900460ff16158015610302576000805461ffff19166101011790555b6001546040516000916001600160a01b031690610329908890889088908890602401610cbd565b60408051601f198184030181529181526020820180517bffffffffffffffffffffffffffffffffffffffffffffffffffffffff167f5c6d8da1000000000000000000000000000000000000000000000000000000001790525161038c9190610d11565b600060405180830381855af49150503d80600081146103c7576040519150601f19603f3d011682016040523d82523d6000602084013e6103cc565b606091505b505090508061041d5760405162461bcd60e51b815260206004820152601560248201527f496e697469616c697a6174696f6e206661696c6564000000000000000000000060448201526064016100c7565b508015610430576000805461ff00191690555b5050505050565b6000546001600160a01b03620100009091041633146104985760405162461bcd60e51b815260206004820181905260248201527f4f776e61626c653a2063616c6c6572206973206e6f7420746865206f776e657260448201526064016100c7565b6104a260006107a8565b565b6000546001600160a01b03620100009091041633146105055760405162461bcd60e51b815260206004820181905260248201527f4f776e61626c653a2063616c6c6572206973206e6f7420746865206f776e657260448201526064016100c7565b6001600160a01b0381166105815760405162461bcd60e51b815260206004820152602660248201527f4f776e61626c653a206e6577206f776e657220697320746865207a65726f206160448201527f646472657373000000000000000000000000000000000000000000000000000060648201526084016100c7565b6101d8816107a8565b6000546001600160a01b03620100009091041633146101d85760405162461bcd60e51b815260206004820181905260248201527f4f776e61626c653a2063616c6c6572206973206e6f7420746865206f776e657260448201526064016100c7565b600061061e7f360894a13ba1a3210667c828492db98dca3e2076cc3735a920a3ca505d382bbc546001600160a01b031690565b905061062984610819565b6000835111806106365750815b156106475761064584846108e6565b505b7f4910fdfa16fed3260ed0e7147f7cc6da11a60208b5b9406d12a635614ffd9143805460ff1661043057805460ff191660011781556040516001600160a01b03831660248201526106f490869060440160408051601f198184030181529190526020810180517bffffffffffffffffffffffffffffffffffffffffffffffffffffffff167f3659cfe6000000000000000000000000000000000000000000000000000000001790526108e6565b50805460ff191681557f360894a13ba1a3210667c828492db98dca3e2076cc3735a920a3ca505d382bbc546001600160a01b0383811691161461079f5760405162461bcd60e51b815260206004820152602f60248201527f45524331393637557067726164653a207570677261646520627265616b73206660448201527f757274686572207570677261646573000000000000000000000000000000000060648201526084016100c7565b61043085610912565b600080546001600160a01b03838116620100008181027fffffffffffffffffffff0000000000000000000000000000000000000000ffff851617855560405193049190911692909183917f8be0079c531659141344cd1fd0a4f28419497f9722a3daafe3b4186f6b6457e091a35050565b803b61088d5760405162461bcd60e51b815260206004820152602d60248201527f455243313936373a206e657720696d706c656d656e746174696f6e206973206e60448201527f6f74206120636f6e74726163740000000000000000000000000000000000000060648201526084016100c7565b7f360894a13ba1a3210667c828492db98dca3e2076cc3735a920a3ca505d382bbc80547fffffffffffffffffffffffff0000000000000000000000000000000000000000166001600160a01b0392909216919091179055565b606061090b8383604051806060016040528060278152602001610d4160279139610952565b9392505050565b61091b81610819565b6040516001600160a01b038216907fbc7cd75a20ee27fd9adebab32041f755214dbc6bffa90cc0225b39da2e5c2d3b90600090a250565b6060833b6109c85760405162461bcd60e51b815260206004820152602660248201527f416464726573733a2064656c65676174652063616c6c20746f206e6f6e2d636f60448201527f6e7472616374000000000000000000000000000000000000000000000000000060648201526084016100c7565b600080856001600160a01b0316856040516109e39190610d11565b600060405180830381855af49150503d8060008114610a1e576040519150601f19603f3d011682016040523d82523d6000602084013e610a23565b606091505b5091509150610a33828286610a3d565b9695505050505050565b60608315610a4c57508161090b565b825115610a5c5782518084602001fd5b8160405162461bcd60e51b81526004016100c79190610d2d565b80356001600160a01b0381168114610a8d57600080fd5b919050565b600060208284031215610aa457600080fd5b61090b82610a76565b7f4e487b7100000000000000000000000000000000000000000000000000000000600052604160045260246000fd5b600067ffffffffffffffff80841115610af757610af7610aad565b604051601f8501601f19908116603f01168101908282118183101715610b1f57610b1f610aad565b81604052809350858152868686011115610b3857600080fd5b858560208301376000602087830101525050509392505050565b60008060408385031215610b6557600080fd5b610b6e83610a76565b9150602083013567ffffffffffffffff811115610b8a57600080fd5b8301601f81018513610b9b57600080fd5b610baa85823560208401610adc565b9150509250929050565b600082601f830112610bc557600080fd5b61090b83833560208501610adc565b60008060008060808587031215610bea57600080fd5b843567ffffffffffffffff80821115610c0257600080fd5b610c0e88838901610bb4565b95506020870135915080821115610c2457600080fd5b610c3088838901610bb4565b94506040870135915080821115610c4657600080fd5b50610c5387828801610bb4565b925050610c6260608601610a76565b905092959194509250565b60005b83811015610c88578181015183820152602001610c70565b50506000910152565b60008151808452610ca9816020860160208601610c6d565b601f01601f19169290920160200192915050565b608081526000610cd06080830187610c91565b8281036020840152610ce28187610c91565b90508281036040840152610cf68186610c91565b9150506001600160a01b038316606083015295945050505050565b60008251610d23818460208701610c6d565b9190910192915050565b60208152600061090b6020830184610c9156fe416464726573733a206c6f772d6c6576656c2064656c65676174652063616c6c206661696c6564a26469706673582212201708518c8e4abc2088c979710f120738cd401692262b2aaba2005a8c66e0656464736f6c63430008180033a26469706673582212206d9fdb0d2e651c7117228c72ddf99eae8448f4c99db469740bbdd772a2a5c99b64736f6c63430008180033",
    "linkReferences": {},
    "deployedLinkReferences": {}
}