{
  "_format": "hh-sol-artifact-1",
  "contractName": "Pod",
  "sourceName": "contracts/Pod.sol",
  "abi": [
    {
      "inputs": [
        {
          "internalType": "address",
          "name": "_initiator",
          "type": "address"
        },
        {
          "internalType": "string",
          "name": "_cid",
          "type": "string"
        },
        {
          "internalType": "string",
          "name": "_name",
          "type": "string"
        }
      ],
      "stateMutability": "nonpayable",
      "type": "constructor"
    },
    {
      "anonymous": false,
      "inputs": [
        {
          "indexed": true,
          "internalType": "address",
          "name": "pod",
          "type": "address"
        },
        {
          "indexed": true,
          "internalType": "address",
          "name": "from",
          "type": "address"
        },
        {
          "indexed": true,
          "internalType": "address",
          "name": "to",
          "type": "address"
        }
      ],
      "name": "PodInvite",
      "type": "event"
    },
    {
      "anonymous": false,
      "inputs": [
        {
          "indexed": true,
          "internalType": "address",
          "name": "pod",
          "type": "address"
        },
        {
          "indexed": true,
          "internalType": "address",
          "name": "from",
          "type": "address"
        },
        {
          "indexed": true,
          "internalType": "string",
          "name": "cid",
          "type": "string"
        }
      ],
      "name": "PodUpdate",
      "type": "event"
    },
    {
      "inputs": [
        {
          "internalType": "address[]",
          "name": "_array",
          "type": "address[]"
        },
        {
          "internalType": "address",
          "name": "_address",
          "type": "address"
        }
      ],
      "name": "_exists",
      "outputs": [
        {
          "internalType": "bool",
          "name": "",
          "type": "bool"
        }
      ],
      "stateMutability": "pure",
      "type": "function"
    },
    {
      "inputs": [
        {
          "internalType": "uint256",
          "name": "",
          "type": "uint256"
        }
      ],
      "name": "authors",
      "outputs": [
        {
          "internalType": "address",
          "name": "",
          "type": "address"
        }
      ],
      "stateMutability": "view",
      "type": "function"
    },
    {
      "inputs": [],
      "name": "cid",
      "outputs": [
        {
          "internalType": "string",
          "name": "",
          "type": "string"
        }
      ],
      "stateMutability": "view",
      "type": "function"
    },
    {
      "inputs": [],
      "name": "getAuthors",
      "outputs": [
        {
          "internalType": "address[]",
          "name": "",
          "type": "address[]"
        }
      ],
      "stateMutability": "view",
      "type": "function"
    },
    {
      "inputs": [],
      "name": "getReaders",
      "outputs": [
        {
          "internalType": "address[]",
          "name": "",
          "type": "address[]"
        }
      ],
      "stateMutability": "view",
      "type": "function"
    },
    {
      "inputs": [
        {
          "internalType": "address",
          "name": "_author",
          "type": "address"
        }
      ],
      "name": "inviteAuthor",
      "outputs": [],
      "stateMutability": "nonpayable",
      "type": "function"
    },
    {
      "inputs": [
        {
          "internalType": "address",
          "name": "_reader",
          "type": "address"
        }
      ],
      "name": "inviteReader",
      "outputs": [],
      "stateMutability": "nonpayable",
      "type": "function"
    },
    {
      "inputs": [],
      "name": "name",
      "outputs": [
        {
          "internalType": "string",
          "name": "",
          "type": "string"
        }
      ],
      "stateMutability": "view",
      "type": "function"
    },
    {
      "inputs": [
        {
          "internalType": "uint256",
          "name": "",
          "type": "uint256"
        }
      ],
      "name": "readers",
      "outputs": [
        {
          "internalType": "address",
          "name": "",
          "type": "address"
        }
      ],
      "stateMutability": "view",
      "type": "function"
    },
    {
      "inputs": [
        {
          "internalType": "string",
          "name": "_cid",
          "type": "string"
        }
      ],
      "name": "update",
      "outputs": [],
      "stateMutability": "nonpayable",
      "type": "function"
    }
  ],
  "bytecode": "0x60806040523480156200001157600080fd5b5060405162000e2f38038062000e2f8339810160408190526200003491620001a8565b6002805460018181019092557f405787fa12a823e0f2b7631cc41b3ba8828b3321ca811111fa75cd3aa3bb5ace0180546001600160a01b0386166001600160a01b0319918216811790925560038054938401815560009081527fc2575a0e9e593c00f959f8c92f12db2869c3395a3b0502d05e2516446f71f85b90930180549091169091179055620000c78382620002c3565b506001620000d68282620002c3565b505050506200038f565b634e487b7160e01b600052604160045260246000fd5b600082601f8301126200010857600080fd5b81516001600160401b0380821115620001255762000125620000e0565b604051601f8301601f19908116603f01168101908282118183101715620001505762000150620000e0565b81604052838152602092508660208588010111156200016e57600080fd5b600091505b8382101562000192578582018301518183018401529082019062000173565b6000602085830101528094505050505092915050565b600080600060608486031215620001be57600080fd5b83516001600160a01b0381168114620001d657600080fd5b60208501519093506001600160401b0380821115620001f457600080fd5b6200020287838801620000f6565b935060408601519150808211156200021957600080fd5b506200022886828701620000f6565b9150509250925092565b600181811c908216806200024757607f821691505b6020821081036200026857634e487b7160e01b600052602260045260246000fd5b50919050565b601f821115620002be576000816000526020600020601f850160051c81016020861015620002995750805b601f850160051c820191505b81811015620002ba57828155600101620002a5565b5050505b505050565b81516001600160401b03811115620002df57620002df620000e0565b620002f781620002f0845462000232565b846200026e565b602080601f8311600181146200032f5760008415620003165750858301515b600019600386901b1c1916600185901b178555620002ba565b600085815260208120601f198616915b8281101562000360578886015182559484019460019091019084016200033f565b50858210156200037f5787850151600019600388901b60f8161c191681555b5050505050600190811b01905550565b610a90806200039f6000396000f3fe608060405234801561001057600080fd5b50600436106100be5760003560e01c80639646884811610076578063dc6e15151161005b578063dc6e151514610174578063ec5f71df14610187578063efc9e44d1461019a57600080fd5b80639646884814610159578063aa3ec0a91461016c57600080fd5b80633db804da116100a75780633db804da146100f657806368db21f0146101215780637fc622f41461014457600080fd5b806306fdde03146100c35780633d7403a3146100e1575b600080fd5b6100cb6101a2565b6040516100d89190610696565b60405180910390f35b6100f46100ef3660046106e5565b610230565b005b610109610104366004610757565b610286565b6040516001600160a01b0390911681526020016100d8565b61013461012f3660046107a2565b6102b0565b60405190151581526020016100d8565b61014c61030d565b6040516100d89190610879565b6100f46101673660046108c6565b61036f565b6100cb61052a565b6100f46101823660046108c6565b610537565b610109610195366004610757565b610626565b61014c610636565b600180546101af906108e8565b80601f01602080910402602001604051908101604052809291908181526020018280546101db906108e8565b80156102285780601f106101fd57610100808354040283529160200191610228565b820191906000526020600020905b81548152906001019060200180831161020b57829003601f168201915b505050505081565b600061023d828483610973565b50818160405161024e929190610a34565b60405190819003812090339030907f1a13d7c8718d93d5b2ba41b491d2d700b627a94cfacd2ef001be42bec827bb9a90600090a45050565b6003818154811061029657600080fd5b6000918252602090912001546001600160a01b0316905081565b6000805b835181101561030157826001600160a01b03168482815181106102d9576102d9610a44565b60200260200101516001600160a01b0316036102f9576001915050610307565b6001016102b4565b50600090505b92915050565b6060600380548060200260200160405190810160405280929190818152602001828054801561036557602002820191906000526020600020905b81546001600160a01b03168152600190910190602001808311610347575b5050505050905090565b6103d360028054806020026020016040519081016040528092919081815260200182805480156103c857602002820191906000526020600020905b81546001600160a01b031681526001909101906020018083116103aa575b5050505050826102b0565b61043057600280546001810182556000919091527f405787fa12a823e0f2b7631cc41b3ba8828b3321ca811111fa75cd3aa3bb5ace01805473ffffffffffffffffffffffffffffffffffffffff19166001600160a01b0383161790555b61049260038054806020026020016040519081016040528092919081815260200182805480156103c8576020028201919060005260206000209081546001600160a01b031681526001909101906020018083116103aa575050505050826102b0565b6104ef57600380546001810182556000919091527fc2575a0e9e593c00f959f8c92f12db2869c3395a3b0502d05e2516446f71f85b01805473ffffffffffffffffffffffffffffffffffffffff19166001600160a01b0383161790555b6040516001600160a01b03821690339030907f9869203779433091b9033c50a09cb80d8b9123be346b41ff4efe82d2b2d898d790600090a450565b600080546101af906108e8565b61059960028054806020026020016040519081016040528092919081815260200182805480156103c8576020028201919060005260206000209081546001600160a01b031681526001909101906020018083116103aa575050505050826102b0565b6104ef576002805460018101825560009182527f405787fa12a823e0f2b7631cc41b3ba8828b3321ca811111fa75cd3aa3bb5ace01805473ffffffffffffffffffffffffffffffffffffffff19166001600160a01b0384169081179091556040519091339130917f9869203779433091b9033c50a09cb80d8b9123be346b41ff4efe82d2b2d898d791a450565b6002818154811061029657600080fd5b60606002805480602002602001604051908101604052809291908181526020018280548015610365576020028201919060005260206000209081546001600160a01b03168152600190910190602001808311610347575050505050905090565b60006020808352835180602085015260005b818110156106c4578581018301518582016040015282016106a8565b506000604082860101526040601f19601f8301168501019250505092915050565b600080602083850312156106f857600080fd5b823567ffffffffffffffff8082111561071057600080fd5b818501915085601f83011261072457600080fd5b81358181111561073357600080fd5b86602082850101111561074557600080fd5b60209290920196919550909350505050565b60006020828403121561076957600080fd5b5035919050565b634e487b7160e01b600052604160045260246000fd5b80356001600160a01b038116811461079d57600080fd5b919050565b600080604083850312156107b557600080fd5b823567ffffffffffffffff808211156107cd57600080fd5b818501915085601f8301126107e157600080fd5b81356020828211156107f5576107f5610770565b8160051b604051601f19603f8301168101818110868211171561081a5761081a610770565b60405292835281830193508481018201928984111561083857600080fd5b948201945b8386101561085d5761084e86610786565b8552948201949382019361083d565b965061086c9050878201610786565b9450505050509250929050565b6020808252825182820181905260009190848201906040850190845b818110156108ba5783516001600160a01b031683529284019291840191600101610895565b50909695505050505050565b6000602082840312156108d857600080fd5b6108e182610786565b9392505050565b600181811c908216806108fc57607f821691505b60208210810361091c57634e487b7160e01b600052602260045260246000fd5b50919050565b601f82111561096e576000816000526020600020601f850160051c8101602086101561094b5750805b601f850160051c820191505b8181101561096a57828155600101610957565b5050505b505050565b67ffffffffffffffff83111561098b5761098b610770565b61099f8361099983546108e8565b83610922565b6000601f8411600181146109d357600085156109bb5750838201355b600019600387901b1c1916600186901b178355610a2d565b600083815260209020601f19861690835b82811015610a0457868501358255602094850194600190920191016109e4565b5086821015610a215760001960f88860031b161c19848701351681555b505060018560011b0183555b5050505050565b8183823760009101908152919050565b634e487b7160e01b600052603260045260246000fdfea264697066735822122043686fa37e68dd369ffec0e4d95ace6c0f9b1bcdcbf500e6325617811bf1111364736f6c63430008180033",
  "linkReferences": {},
  "deployedLinkReferences": {}
}