{
  "_format": "hh-sol-artifact-1",
  "contractName": "Pod",
  "sourceName": "contracts/Pod.sol",
  "abi": [
    {
      "inputs": [
        {
          "internalType": "address",
          "name": "_initiator",
          "type": "address"
        },
        {
          "internalType": "string",
          "name": "_cid",
          "type": "string"
        }
      ],
      "stateMutability": "nonpayable",
      "type": "constructor"
    },
    {
      "anonymous": false,
      "inputs": [
        {
          "indexed": true,
          "internalType": "address",
          "name": "pod",
          "type": "address"
        },
        {
          "indexed": true,
          "internalType": "address",
          "name": "from",
          "type": "address"
        },
        {
          "indexed": true,
          "internalType": "address",
          "name": "to",
          "type": "address"
        }
      ],
      "name": "PodInvite",
      "type": "event"
    },
    {
      "anonymous": false,
      "inputs": [
        {
          "indexed": true,
          "internalType": "address",
          "name": "pod",
          "type": "address"
        },
        {
          "indexed": true,
          "internalType": "address",
          "name": "from",
          "type": "address"
        },
        {
          "indexed": true,
          "internalType": "string",
          "name": "cid",
          "type": "string"
        }
      ],
      "name": "PodUpdate",
      "type": "event"
    },
    {
      "inputs": [
        {
          "internalType": "address[]",
          "name": "_array",
          "type": "address[]"
        },
        {
          "internalType": "address",
          "name": "_address",
          "type": "address"
        }
      ],
      "name": "_exists",
      "outputs": [
        {
          "internalType": "bool",
          "name": "",
          "type": "bool"
        }
      ],
      "stateMutability": "pure",
      "type": "function"
    },
    {
      "inputs": [
        {
          "internalType": "uint256",
          "name": "",
          "type": "uint256"
        }
      ],
      "name": "authors",
      "outputs": [
        {
          "internalType": "address",
          "name": "",
          "type": "address"
        }
      ],
      "stateMutability": "view",
      "type": "function"
    },
    {
      "inputs": [],
      "name": "cid",
      "outputs": [
        {
          "internalType": "string",
          "name": "",
          "type": "string"
        }
      ],
      "stateMutability": "view",
      "type": "function"
    },
    {
      "inputs": [
        {
          "internalType": "address",
          "name": "_author",
          "type": "address"
        }
      ],
      "name": "inviteAuthor",
      "outputs": [],
      "stateMutability": "nonpayable",
      "type": "function"
    },
    {
      "inputs": [
        {
          "internalType": "address",
          "name": "_reader",
          "type": "address"
        }
      ],
      "name": "inviteReader",
      "outputs": [],
      "stateMutability": "nonpayable",
      "type": "function"
    },
    {
      "inputs": [
        {
          "internalType": "uint256",
          "name": "",
          "type": "uint256"
        }
      ],
      "name": "readers",
      "outputs": [
        {
          "internalType": "address",
          "name": "",
          "type": "address"
        }
      ],
      "stateMutability": "view",
      "type": "function"
    },
    {
      "inputs": [
        {
          "internalType": "string",
          "name": "_cid",
          "type": "string"
        }
      ],
      "name": "update",
      "outputs": [],
      "stateMutability": "nonpayable",
      "type": "function"
    }
  ],
  "bytecode": "0x60806040523480156200001157600080fd5b5060405162000c4e38038062000c4e8339810160408190526200003491620000e3565b6001805480820182557fb10e2d527612073b26eecdfd717e6a320cf44b4afac2b0732d9fcbe2b7fa0cf60180546001600160a01b0385166001600160a01b0319918216811790925560028054938401815560009081527f405787fa12a823e0f2b7631cc41b3ba8828b3321ca811111fa75cd3aa3bb5ace90930180549091169091179055620000c482826200026a565b50505062000336565b634e487b7160e01b600052604160045260246000fd5b60008060408385031215620000f757600080fd5b82516001600160a01b03811681146200010f57600080fd5b602084810151919350906001600160401b03808211156200012f57600080fd5b818601915086601f8301126200014457600080fd5b815181811115620001595762000159620000cd565b604051601f8201601f19908116603f01168101908382118183101715620001845762000184620000cd565b8160405282815289868487010111156200019d57600080fd5b600093505b82841015620001c15784840186015181850187015292850192620001a2565b60008684830101528096505050505050509250929050565b600181811c90821680620001ee57607f821691505b6020821081036200020f57634e487b7160e01b600052602260045260246000fd5b50919050565b601f82111562000265576000816000526020600020601f850160051c81016020861015620002405750805b601f850160051c820191505b8181101562000261578281556001016200024c565b5050505b505050565b81516001600160401b03811115620002865762000286620000cd565b6200029e81620002978454620001d9565b8462000215565b602080601f831160018114620002d65760008415620002bd5750858301515b600019600386901b1c1916600185901b17855562000261565b600085815260208120601f198616915b828110156200030757888601518255948401946001909101908401620002e6565b5085821015620003265787850151600019600388901b60f8161c191681555b5050505050600190811b01905550565b61090880620003466000396000f3fe608060405234801561001057600080fd5b506004361061007d5760003560e01c8063964688481161005b57806396468848146100ea578063aa3ec0a9146100fd578063dc6e151514610112578063ec5f71df1461012557600080fd5b80633d7403a3146100825780633db804da1461009757806368db21f0146100c7575b600080fd5b61009561009036600461055b565b610138565b005b6100aa6100a53660046105cd565b61018e565b6040516001600160a01b0390911681526020015b60405180910390f35b6100da6100d5366004610618565b6101b8565b60405190151581526020016100be565b6100956100f83660046106ef565b610215565b6101056103cf565b6040516100be9190610711565b6100956101203660046106ef565b61045d565b6100aa6101333660046105cd565b61054b565b60006101458284836107eb565b5081816040516101569291906108ac565b60405190819003812090339030907f1a13d7c8718d93d5b2ba41b491d2d700b627a94cfacd2ef001be42bec827bb9a90600090a45050565b6002818154811061019e57600080fd5b6000918252602090912001546001600160a01b0316905081565b6000805b835181101561020957826001600160a01b03168482815181106101e1576101e16108bc565b60200260200101516001600160a01b03160361020157600191505061020f565b6001016101bc565b50600090505b92915050565b610279600180548060200260200160405190810160405280929190818152602001828054801561026e57602002820191906000526020600020905b81546001600160a01b03168152600190910190602001808311610250575b5050505050826101b8565b6102d5576001805480820182556000919091527fb10e2d527612073b26eecdfd717e6a320cf44b4afac2b0732d9fcbe2b7fa0cf601805473ffffffffffffffffffffffffffffffffffffffff19166001600160a01b0383161790555b610337600280548060200260200160405190810160405280929190818152602001828054801561026e576020028201919060005260206000209081546001600160a01b03168152600190910190602001808311610250575050505050826101b8565b61039457600280546001810182556000919091527f405787fa12a823e0f2b7631cc41b3ba8828b3321ca811111fa75cd3aa3bb5ace01805473ffffffffffffffffffffffffffffffffffffffff19166001600160a01b0383161790555b6040516001600160a01b03821690339030907f9869203779433091b9033c50a09cb80d8b9123be346b41ff4efe82d2b2d898d790600090a450565b600080546103dc90610760565b80601f016020809104026020016040519081016040528092919081815260200182805461040890610760565b80156104555780601f1061042a57610100808354040283529160200191610455565b820191906000526020600020905b81548152906001019060200180831161043857829003601f168201915b505050505081565b6104bf600180548060200260200160405190810160405280929190818152602001828054801561026e576020028201919060005260206000209081546001600160a01b03168152600190910190602001808311610250575050505050826101b8565b6103945760018054808201825560009182527fb10e2d527612073b26eecdfd717e6a320cf44b4afac2b0732d9fcbe2b7fa0cf601805473ffffffffffffffffffffffffffffffffffffffff19166001600160a01b0384169081179091556040519091339130917f9869203779433091b9033c50a09cb80d8b9123be346b41ff4efe82d2b2d898d791a450565b6001818154811061019e57600080fd5b6000806020838503121561056e57600080fd5b823567ffffffffffffffff8082111561058657600080fd5b818501915085601f83011261059a57600080fd5b8135818111156105a957600080fd5b8660208285010111156105bb57600080fd5b60209290920196919550909350505050565b6000602082840312156105df57600080fd5b5035919050565b634e487b7160e01b600052604160045260246000fd5b80356001600160a01b038116811461061357600080fd5b919050565b6000806040838503121561062b57600080fd5b823567ffffffffffffffff8082111561064357600080fd5b818501915085601f83011261065757600080fd5b813560208282111561066b5761066b6105e6565b8160051b604051601f19603f83011681018181108682111715610690576106906105e6565b6040529283528183019350848101820192898411156106ae57600080fd5b948201945b838610156106d3576106c4866105fc565b855294820194938201936106b3565b96506106e290508782016105fc565b9450505050509250929050565b60006020828403121561070157600080fd5b61070a826105fc565b9392505050565b60006020808352835180602085015260005b8181101561073f57858101830151858201604001528201610723565b506000604082860101526040601f19601f8301168501019250505092915050565b600181811c9082168061077457607f821691505b60208210810361079457634e487b7160e01b600052602260045260246000fd5b50919050565b601f8211156107e6576000816000526020600020601f850160051c810160208610156107c35750805b601f850160051c820191505b818110156107e2578281556001016107cf565b5050505b505050565b67ffffffffffffffff831115610803576108036105e6565b610817836108118354610760565b8361079a565b6000601f84116001811461084b57600085156108335750838201355b600019600387901b1c1916600186901b1783556108a5565b600083815260209020601f19861690835b8281101561087c578685013582556020948501946001909201910161085c565b50868210156108995760001960f88860031b161c19848701351681555b505060018560011b0183555b5050505050565b8183823760009101908152919050565b634e487b7160e01b600052603260045260246000fdfea264697066735822122061d8f703691eacfaf934ade950a50dcedcff5ebf16b52edca381969f7eec9c7464736f6c63430008180033",
  "linkReferences": {},
  "deployedLinkReferences": {}
}