{
  "_format": "hh-sol-artifact-1",
  "contractName": "PodFactory",
  "sourceName": "contracts/Pod.sol",
  "abi": [
    {
      "inputs": [
        {
          "internalType": "address",
          "name": "owner",
          "type": "address"
        },
        {
          "internalType": "string",
          "name": "cid",
          "type": "string"
        }
      ],
      "name": "concatBytes16",
      "outputs": [
        {
          "internalType": "bytes32",
          "name": "result",
          "type": "bytes32"
        }
      ],
      "stateMutability": "pure",
      "type": "function"
    },
    {
      "inputs": [
        {
          "internalType": "address",
          "name": "owner",
          "type": "address"
        },
        {
          "internalType": "string",
          "name": "cid",
          "type": "string"
        }
      ],
      "name": "createPod",
      "outputs": [
        {
          "internalType": "address",
          "name": "",
          "type": "address"
        }
      ],
      "stateMutability": "nonpayable",
      "type": "function"
    },
    {
      "inputs": [],
      "name": "test",
      "outputs": [
        {
          "internalType": "string",
          "name": "",
          "type": "string"
        }
      ],
      "stateMutability": "pure",
      "type": "function"
    }
  ],
  "bytecode": "0x608060405234801561001057600080fd5b506110cb806100206000396000f3fe608060405234801561001057600080fd5b50600436106100415760003560e01c80636e4506871461004657806397cf9cce1461006c578063f8a8fd6d14610097575b600080fd5b610059610054366004610324565b6100d6565b6040519081526020015b60405180910390f35b61007f61007a366004610324565b6100fa565b6040516001600160a01b039091168152602001610063565b604080518082018252600581527f68656c6c6f000000000000000000000000000000000000000000000000000000602082015290516100639190610444565b600081606084901b826100e883610457565b60809290921b90911795945050505050565b60008061010784846100d6565b905060006040518060200161011b906102e8565b601f1982820381018352601f90910116604081905261014090879087906020016104a7565b60408051601f198184030181529082905261015e92916020016104d1565b604051602081830303815290604052905060006101828383805190602001206101b7565b90506001600160a01b0381163b80156101a0575092506101b1915050565b6101aa848461022e565b9450505050505b92915050565b604080517fff000000000000000000000000000000000000000000000000000000000000006020808301919091526bffffffffffffffffffffffff193060601b16602183015260358201859052605580830185905283518084039091018152607590920190925280519101206000905b9392505050565b600081516000036102865760405162461bcd60e51b815260206004820181905260248201527f437265617465323a2062797465636f6465206c656e677468206973207a65726f60448201526064015b60405180910390fd5b828251602084016000f590506001600160a01b0381166101b15760405162461bcd60e51b815260206004820152601960248201527f437265617465323a204661696c6564206f6e206465706c6f7900000000000000604482015260640161027d565b610b958061050183390190565b7f4e487b7100000000000000000000000000000000000000000000000000000000600052604160045260246000fd5b6000806040838503121561033757600080fd5b82356001600160a01b038116811461034e57600080fd5b9150602083013567ffffffffffffffff8082111561036b57600080fd5b818501915085601f83011261037f57600080fd5b813581811115610391576103916102f5565b604051601f8201601f19908116603f011681019083821181831017156103b9576103b96102f5565b816040528281528860208487010111156103d257600080fd5b8260208601602083013760006020848301015280955050505050509250929050565b60005b8381101561040f5781810151838201526020016103f7565b50506000910152565b600081518084526104308160208601602086016103f4565b601f01601f19169290920160200192915050565b6020815260006102276020830184610418565b6000815160208301517fffffffffffffffffffffffffffffffff000000000000000000000000000000008082169350601083101561049f5780818460100360031b1b83161693505b505050919050565b6001600160a01b03831681526040602082015260006104c96040830184610418565b949350505050565b600083516104e38184602088016103f4565b8351908301906104f78183602088016103f4565b0194935050505056fe60806040523480156200001157600080fd5b5060405162000b9538038062000b958339810160408190526200003491620000e3565b6001805480820182557fb10e2d527612073b26eecdfd717e6a320cf44b4afac2b0732d9fcbe2b7fa0cf60180546001600160a01b0385166001600160a01b0319918216811790925560028054938401815560009081527f405787fa12a823e0f2b7631cc41b3ba8828b3321ca811111fa75cd3aa3bb5ace90930180549091169091179055620000c482826200026a565b50505062000336565b634e487b7160e01b600052604160045260246000fd5b60008060408385031215620000f757600080fd5b82516001600160a01b03811681146200010f57600080fd5b602084810151919350906001600160401b03808211156200012f57600080fd5b818601915086601f8301126200014457600080fd5b815181811115620001595762000159620000cd565b604051601f8201601f19908116603f01168101908382118183101715620001845762000184620000cd565b8160405282815289868487010111156200019d57600080fd5b600093505b82841015620001c15784840186015181850187015292850192620001a2565b60008684830101528096505050505050509250929050565b600181811c90821680620001ee57607f821691505b6020821081036200020f57634e487b7160e01b600052602260045260246000fd5b50919050565b601f82111562000265576000816000526020600020601f850160051c81016020861015620002405750805b601f850160051c820191505b8181101562000261578281556001016200024c565b5050505b505050565b81516001600160401b03811115620002865762000286620000cd565b6200029e81620002978454620001d9565b8462000215565b602080601f831160018114620002d65760008415620002bd5750858301515b600019600386901b1c1916600185901b17855562000261565b600085815260208120601f198616915b828110156200030757888601518255948401946001909101908401620002e6565b5085821015620003265787850151600019600388901b60f8161c191681555b5050505050600190811b01905550565b61084f80620003466000396000f3fe608060405234801561001057600080fd5b506004361061007d5760003560e01c80639a591df31161005b5780639a591df3146100da578063aa3ec0a9146100fd578063dc6e151514610112578063ec5f71df1461012557600080fd5b806304ddce59146100825780633d7403a3146100975780633db804da146100aa575b600080fd5b6100956100903660046104cf565b610138565b005b6100956100a53660046104f1565b6102ba565b6100bd6100b8366004610563565b6102cc565b6040516001600160a01b0390911681526020015b60405180910390f35b6100ed6100e8366004610592565b6102f6565b60405190151581526020016100d1565b610105610353565b6040516100d19190610669565b6100956101203660046104cf565b6103e1565b6100bd610133366004610563565b6104a3565b61019c600180548060200260200160405190810160405280929190818152602001828054801561019157602002820191906000526020600020905b81546001600160a01b03168152600190910190602001808311610173575b5050505050826102f6565b6101f8576001805480820182556000919091527fb10e2d527612073b26eecdfd717e6a320cf44b4afac2b0732d9fcbe2b7fa0cf601805473ffffffffffffffffffffffffffffffffffffffff19166001600160a01b0383161790555b61025a6002805480602002602001604051908101604052809291908181526020018280548015610191576020028201919060005260206000209081546001600160a01b03168152600190910190602001808311610173575050505050826102f6565b6102b757600280546001810182556000919091527f405787fa12a823e0f2b7631cc41b3ba8828b3321ca811111fa75cd3aa3bb5ace01805473ffffffffffffffffffffffffffffffffffffffff19166001600160a01b0383161790555b50565b60006102c7828483610742565b505050565b600281815481106102dc57600080fd5b6000918252602090912001546001600160a01b0316905081565b6000805b835181101561034757826001600160a01b031684828151811061031f5761031f610803565b60200260200101516001600160a01b03160361033f57600191505061034d565b6001016102fa565b50600090505b92915050565b60008054610360906106b8565b80601f016020809104026020016040519081016040528092919081815260200182805461038c906106b8565b80156103d95780601f106103ae576101008083540402835291602001916103d9565b820191906000526020600020905b8154815290600101906020018083116103bc57829003601f168201915b505050505081565b6104436001805480602002602001604051908101604052809291908181526020018280548015610191576020028201919060005260206000209081546001600160a01b03168152600190910190602001808311610173575050505050826102f6565b6102b7576001805480820182556000919091527fb10e2d527612073b26eecdfd717e6a320cf44b4afac2b0732d9fcbe2b7fa0cf60180546001600160a01b03831673ffffffffffffffffffffffffffffffffffffffff1990911617905550565b600181815481106102dc57600080fd5b80356001600160a01b03811681146104ca57600080fd5b919050565b6000602082840312156104e157600080fd5b6104ea826104b3565b9392505050565b6000806020838503121561050457600080fd5b823567ffffffffffffffff8082111561051c57600080fd5b818501915085601f83011261053057600080fd5b81358181111561053f57600080fd5b86602082850101111561055157600080fd5b60209290920196919550909350505050565b60006020828403121561057557600080fd5b5035919050565b634e487b7160e01b600052604160045260246000fd5b600080604083850312156105a557600080fd5b823567ffffffffffffffff808211156105bd57600080fd5b818501915085601f8301126105d157600080fd5b81356020828211156105e5576105e561057c565b8160051b604051601f19603f8301168101818110868211171561060a5761060a61057c565b60405292835281830193508481018201928984111561062857600080fd5b948201945b8386101561064d5761063e866104b3565b8552948201949382019361062d565b965061065c90508782016104b3565b9450505050509250929050565b60006020808352835180602085015260005b818110156106975785810183015185820160400152820161067b565b506000604082860101526040601f19601f8301168501019250505092915050565b600181811c908216806106cc57607f821691505b6020821081036106ec57634e487b7160e01b600052602260045260246000fd5b50919050565b601f8211156102c7576000816000526020600020601f850160051c8101602086101561071b5750805b601f850160051c820191505b8181101561073a57828155600101610727565b505050505050565b67ffffffffffffffff83111561075a5761075a61057c565b61076e8361076883546106b8565b836106f2565b6000601f8411600181146107a2576000851561078a5750838201355b600019600387901b1c1916600186901b1783556107fc565b600083815260209020601f19861690835b828110156107d357868501358255602094850194600190920191016107b3565b50868210156107f05760001960f88860031b161c19848701351681555b505060018560011b0183555b5050505050565b634e487b7160e01b600052603260045260246000fdfea26469706673582212206a9e7160e220fa0f3f790125d20253fff275b85631d8ca58aa11fe104d12df8b64736f6c63430008180033a2646970667358221220f308f5ce7f6b1ef098a77322a847427c04ee0d2e2e6a1102cc0cdbd3b4738bbb64736f6c63430008180033",
  "linkReferences": {},
  "deployedLinkReferences": {}
}