{
  "_format": "hh-sol-artifact-1",
  "contractName": "Pod",
  "sourceName": "contracts/Pod.sol",
  "abi": [
    {
      "inputs": [
        {
          "internalType": "address",
          "name": "_initiator",
          "type": "address"
        },
        {
          "internalType": "string",
          "name": "_cid",
          "type": "string"
        },
        {
          "internalType": "string",
          "name": "_name",
          "type": "string"
        }
      ],
      "stateMutability": "nonpayable",
      "type": "constructor"
    },
    {
      "anonymous": false,
      "inputs": [
        {
          "indexed": true,
          "internalType": "address",
          "name": "pod",
          "type": "address"
        },
        {
          "indexed": true,
          "internalType": "address",
          "name": "from",
          "type": "address"
        },
        {
          "indexed": true,
          "internalType": "address",
          "name": "to",
          "type": "address"
        }
      ],
      "name": "PodInvite",
      "type": "event"
    },
    {
      "anonymous": false,
      "inputs": [
        {
          "indexed": true,
          "internalType": "address",
          "name": "pod",
          "type": "address"
        },
        {
          "indexed": true,
          "internalType": "address",
          "name": "from",
          "type": "address"
        },
        {
          "indexed": true,
          "internalType": "string",
          "name": "cid",
          "type": "string"
        }
      ],
      "name": "PodUpdate",
      "type": "event"
    },
    {
      "inputs": [
        {
          "internalType": "address[]",
          "name": "_array",
          "type": "address[]"
        },
        {
          "internalType": "address",
          "name": "_address",
          "type": "address"
        }
      ],
      "name": "_exists",
      "outputs": [
        {
          "internalType": "bool",
          "name": "",
          "type": "bool"
        }
      ],
      "stateMutability": "pure",
      "type": "function"
    },
    {
      "inputs": [
        {
          "internalType": "uint256",
          "name": "",
          "type": "uint256"
        }
      ],
      "name": "authors",
      "outputs": [
        {
          "internalType": "address",
          "name": "",
          "type": "address"
        }
      ],
      "stateMutability": "view",
      "type": "function"
    },
    {
      "inputs": [],
      "name": "cid",
      "outputs": [
        {
          "internalType": "string",
          "name": "",
          "type": "string"
        }
      ],
      "stateMutability": "view",
      "type": "function"
    },
    {
      "inputs": [],
      "name": "getAuthors",
      "outputs": [
        {
          "internalType": "address[]",
          "name": "",
          "type": "address[]"
        }
      ],
      "stateMutability": "view",
      "type": "function"
    },
    {
      "inputs": [],
      "name": "getReaders",
      "outputs": [
        {
          "internalType": "address[]",
          "name": "",
          "type": "address[]"
        }
      ],
      "stateMutability": "view",
      "type": "function"
    },
    {
      "inputs": [
        {
          "internalType": "address",
          "name": "_from",
          "type": "address"
        },
        {
          "internalType": "address",
          "name": "_author",
          "type": "address"
        }
      ],
      "name": "inviteAuthor",
      "outputs": [],
      "stateMutability": "nonpayable",
      "type": "function"
    },
    {
      "inputs": [
        {
          "internalType": "address",
          "name": "_from",
          "type": "address"
        },
        {
          "internalType": "address",
          "name": "_reader",
          "type": "address"
        }
      ],
      "name": "inviteReader",
      "outputs": [],
      "stateMutability": "nonpayable",
      "type": "function"
    },
    {
      "inputs": [],
      "name": "name",
      "outputs": [
        {
          "internalType": "string",
          "name": "",
          "type": "string"
        }
      ],
      "stateMutability": "view",
      "type": "function"
    },
    {
      "inputs": [
        {
          "internalType": "uint256",
          "name": "",
          "type": "uint256"
        }
      ],
      "name": "readers",
      "outputs": [
        {
          "internalType": "address",
          "name": "",
          "type": "address"
        }
      ],
      "stateMutability": "view",
      "type": "function"
    },
    {
      "inputs": [
        {
          "internalType": "address",
          "name": "_from",
          "type": "address"
        },
        {
          "internalType": "string",
          "name": "_cid",
          "type": "string"
        }
      ],
      "name": "update",
      "outputs": [],
      "stateMutability": "nonpayable",
      "type": "function"
    }
  ],
  "bytecode": "0x60806040523480156200001157600080fd5b5060405162000e6438038062000e648339810160408190526200003491620001a8565b6002805460018181019092557f405787fa12a823e0f2b7631cc41b3ba8828b3321ca811111fa75cd3aa3bb5ace0180546001600160a01b0386166001600160a01b0319918216811790925560038054938401815560009081527fc2575a0e9e593c00f959f8c92f12db2869c3395a3b0502d05e2516446f71f85b90930180549091169091179055620000c78382620002c3565b506001620000d68282620002c3565b505050506200038f565b634e487b7160e01b600052604160045260246000fd5b600082601f8301126200010857600080fd5b81516001600160401b0380821115620001255762000125620000e0565b604051601f8301601f19908116603f01168101908282118183101715620001505762000150620000e0565b81604052838152602092508660208588010111156200016e57600080fd5b600091505b8382101562000192578582018301518183018401529082019062000173565b6000602085830101528094505050505092915050565b600080600060608486031215620001be57600080fd5b83516001600160a01b0381168114620001d657600080fd5b60208501519093506001600160401b0380821115620001f457600080fd5b6200020287838801620000f6565b935060408601519150808211156200021957600080fd5b506200022886828701620000f6565b9150509250925092565b600181811c908216806200024757607f821691505b6020821081036200026857634e487b7160e01b600052602260045260246000fd5b50919050565b601f821115620002be576000816000526020600020601f850160051c81016020861015620002995750805b601f850160051c820191505b81811015620002ba57828155600101620002a5565b5050505b505050565b81516001600160401b03811115620002df57620002df620000e0565b620002f781620002f0845462000232565b846200026e565b602080601f8311600181146200032f5760008415620003165750858301515b600019600386901b1c1916600185901b178555620002ba565b600085815260208120601f198616915b8281101562000360578886015182559484019460019091019084016200033f565b50858210156200037f5787850151600019600388901b60f8161c191681555b5050505050600190811b01905550565b610ac5806200039f6000396000f3fe608060405234801561001057600080fd5b50600436106100be5760003560e01c8063838e7c3a11610076578063ec5f71df1161005b578063ec5f71df14610174578063efc9e44d14610187578063f881fa371461018f57600080fd5b8063838e7c3a14610159578063aa3ec0a91461016c57600080fd5b80633db804da116100a75780633db804da146100f657806368db21f0146101215780637fc622f41461014457600080fd5b806306fdde03146100c35780631da613eb146100e1575b600080fd5b6100cb6101a2565b6040516100d891906106a9565b60405180910390f35b6100f46100ef366004610714565b610230565b005b610109610104366004610747565b6103ef565b6040516001600160a01b0390911681526020016100d8565b61013461012f366004610776565b610419565b60405190151581526020016100d8565b61014c610476565b6040516100d8919061084d565b6100f461016736600461089a565b6104d8565b6100cb610538565b610109610182366004610747565b610545565b61014c610555565b6100f461019d366004610714565b6105b5565b600180546101af9061091d565b80601f01602080910402602001604051908101604052809291908181526020018280546101db9061091d565b80156102285780601f106101fd57610100808354040283529160200191610228565b820191906000526020600020905b81548152906001019060200180831161020b57829003601f168201915b505050505081565b610294600280548060200260200160405190810160405280929190818152602001828054801561028957602002820191906000526020600020905b81546001600160a01b0316815260019091019060200180831161026b575b505050505082610419565b6102f157600280546001810182556000919091527f405787fa12a823e0f2b7631cc41b3ba8828b3321ca811111fa75cd3aa3bb5ace01805473ffffffffffffffffffffffffffffffffffffffff19166001600160a01b0383161790555b6103536003805480602002602001604051908101604052809291908181526020018280548015610289576020028201919060005260206000209081546001600160a01b0316815260019091019060200180831161026b57505050505082610419565b6103b057600380546001810182556000919091527fc2575a0e9e593c00f959f8c92f12db2869c3395a3b0502d05e2516446f71f85b01805473ffffffffffffffffffffffffffffffffffffffff19166001600160a01b0383161790555b6040516001600160a01b03808316919084169030907f9869203779433091b9033c50a09cb80d8b9123be346b41ff4efe82d2b2d898d790600090a45050565b600381815481106103ff57600080fd5b6000918252602090912001546001600160a01b0316905081565b6000805b835181101561046a57826001600160a01b031684828151811061044257610442610957565b60200260200101516001600160a01b031603610462576001915050610470565b60010161041d565b50600090505b92915050565b606060038054806020026020016040519081016040528092919081815260200182805480156104ce57602002820191906000526020600020905b81546001600160a01b031681526001909101906020018083116104b0575b5050505050905090565b60006104e58284836109be565b5081816040516104f6929190610a7f565b604051908190038120906001600160a01b0385169030907f1a13d7c8718d93d5b2ba41b491d2d700b627a94cfacd2ef001be42bec827bb9a90600090a4505050565b600080546101af9061091d565b600281815481106103ff57600080fd5b606060028054806020026020016040519081016040528092919081815260200182805480156104ce576020028201919060005260206000209081546001600160a01b031681526001909101906020018083116104b0575050505050905090565b6106176002805480602002602001604051908101604052809291908181526020018280548015610289576020028201919060005260206000209081546001600160a01b0316815260019091019060200180831161026b57505050505082610419565b6103b0576002805460018101825560009182527f405787fa12a823e0f2b7631cc41b3ba8828b3321ca811111fa75cd3aa3bb5ace01805473ffffffffffffffffffffffffffffffffffffffff19166001600160a01b0384811691821790925560405190929185169130917f9869203779433091b9033c50a09cb80d8b9123be346b41ff4efe82d2b2d898d79190a45050565b60006020808352835180602085015260005b818110156106d7578581018301518582016040015282016106bb565b506000604082860101526040601f19601f8301168501019250505092915050565b80356001600160a01b038116811461070f57600080fd5b919050565b6000806040838503121561072757600080fd5b610730836106f8565b915061073e602084016106f8565b90509250929050565b60006020828403121561075957600080fd5b5035919050565b634e487b7160e01b600052604160045260246000fd5b6000806040838503121561078957600080fd5b823567ffffffffffffffff808211156107a157600080fd5b818501915085601f8301126107b557600080fd5b81356020828211156107c9576107c9610760565b8160051b604051601f19603f830116810181811086821117156107ee576107ee610760565b60405292835281830193508481018201928984111561080c57600080fd5b948201945b8386101561083157610822866106f8565b85529482019493820193610811565b965061084090508782016106f8565b9450505050509250929050565b6020808252825182820181905260009190848201906040850190845b8181101561088e5783516001600160a01b031683529284019291840191600101610869565b50909695505050505050565b6000806000604084860312156108af57600080fd5b6108b8846106f8565b9250602084013567ffffffffffffffff808211156108d557600080fd5b818601915086601f8301126108e957600080fd5b8135818111156108f857600080fd5b87602082850101111561090a57600080fd5b6020830194508093505050509250925092565b600181811c9082168061093157607f821691505b60208210810361095157634e487b7160e01b600052602260045260246000fd5b50919050565b634e487b7160e01b600052603260045260246000fd5b601f8211156109b9576000816000526020600020601f850160051c810160208610156109965750805b601f850160051c820191505b818110156109b5578281556001016109a2565b5050505b505050565b67ffffffffffffffff8311156109d6576109d6610760565b6109ea836109e4835461091d565b8361096d565b6000601f841160018114610a1e5760008515610a065750838201355b600019600387901b1c1916600186901b178355610a78565b600083815260209020601f19861690835b82811015610a4f5786850135825560209485019460019092019101610a2f565b5086821015610a6c5760001960f88860031b161c19848701351681555b505060018560011b0183555b5050505050565b818382376000910190815291905056fea26469706673582212200e858325534c0143bb5b7d463551ca6aeaf2427659ef2a128090eea07500247664736f6c63430008180033",
  "linkReferences": {},
  "deployedLinkReferences": {}
}